{
	"data": {
		"bytecode": {
			"linkReferences": {},
			"object": "6080604052348015600e575f80fd5b50335f806101000a81548173ffffffffffffffffffffffffffffffffffffffff021916908373ffffffffffffffffffffffffffffffffffffffff1602179055506128ac8061005b5f395ff3fe608060405234801561000f575f80fd5b5060043610610091575f3560e01c806363edc48f1161006457806363edc48f146101235780638da5cb5b146101535780638fef3fa3146101715780639a37c01e146101a1578063ade1079d146101bf57610091565b80630bcb03d41461009557806319f6652e146100b15780633ad50ded146100cd57806361ab1f0914610105575b5f80fd5b6100af60048036038101906100aa9190611a31565b6101db565b005b6100cb60048036038101906100c69190611a8b565b610394565b005b6100e760048036038101906100e29190611bbc565b610558565b6040516100fc99989796959493929190611caf565b60405180910390f35b61010d61086b565b60405161011a9190611d5d565b60405180910390f35b61013d60048036038101906101389190611bbc565b610871565b60405161014a9190611ec9565b60405180910390f35b61015b610c34565b6040516101689190611ee9565b60405180910390f35b61018b60048036038101906101869190611f02565b610c57565b60405161019891906120e2565b60405180910390f35b6101a9611187565b6040516101b691906120e2565b60405180910390f35b6101d960048036038101906101d4919061212c565b6115a5565b005b5f6101e5826116df565b905060025483111561022c576040517f08c379a0000000000000000000000000000000000000000000000000000000008152600401610223906121b4565b60405180910390fd5b60015f8481526020019081526020015f206008015f9054906101000a900460ff1661028c576040517f08c379a00000000000000000000000000000000000000000000000000000000081526004016102839061221c565b60405180910390fd5b8073ffffffffffffffffffffffffffffffffffffffff1660015f8581526020019081526020015f206005015f9054906101000a900473ffffffffffffffffffffffffffffffffffffffff1673ffffffffffffffffffffffffffffffffffffffff160361032d576040517f08c379a0000000000000000000000000000000000000000000000000000000008152600401610324906122aa565b60405180910390fd5b60015f8481526020019081526020015f206006015f815480929190610351906122f5565b91905055507fa24773234734fa56d66ce98fb6d0c8e4b38c3ce67e8a0cfa10756d0909ba4ed2838260405161038792919061233c565b60405180910390a1505050565b60025f8154809291906103a6906122f5565b91905055505f6103b5826116df565b905060405180610120016040528060025481526020018881526020018781526020018681526020018581526020018273ffffffffffffffffffffffffffffffffffffffff1681526020015f81526020018481526020016001151581525060015f60025481526020019081526020015f205f820151815f01556020820151816001019081610442919061255d565b506040820151816002019081610458919061255d565b50606082015181600301908161046e919061255d565b506080820151816004019081610484919061255d565b5060a0820151816005015f6101000a81548173ffffffffffffffffffffffffffffffffffffffff021916908373ffffffffffffffffffffffffffffffffffffffff16021790555060c0820151816006015560e08201518160070190816104ea919061255d565b50610100820151816008015f6101000a81548160ff0219169083151502179055509050507f2909f23c3c8e4e4457358d712a88f66706a1d69641a1d3dec46eafcba08642c96002548833888760405161054795949392919061262c565b60405180910390a150505050505050565b6001602052805f5260405f205f91509050805f01549080600101805461057d90612390565b80601f01602080910402602001604051908101604052809291908181526020018280546105a990612390565b80156105f45780601f106105cb576101008083540402835291602001916105f4565b820191905f5260205f20905b8154815290600101906020018083116105d757829003601f168201915b50505050509080600201805461060990612390565b80601f016020809104026020016040519081016040528092919081815260200182805461063590612390565b80156106805780601f1061065757610100808354040283529160200191610680565b820191905f5260205f20905b81548152906001019060200180831161066357829003601f168201915b50505050509080600301805461069590612390565b80601f01602080910402602001604051908101604052809291908181526020018280546106c190612390565b801561070c5780601f106106e35761010080835404028352916020019161070c565b820191905f5260205f20905b8154815290600101906020018083116106ef57829003601f168201915b50505050509080600401805461072190612390565b80601f016020809104026020016040519081016040528092919081815260200182805461074d90612390565b80156107985780601f1061076f57610100808354040283529160200191610798565b820191905f5260205f20905b81548152906001019060200180831161077b57829003601f168201915b505050505090806005015f9054906101000a900473ffffffffffffffffffffffffffffffffffffffff16908060060154908060070180546107d890612390565b80601f016020809104026020016040519081016040528092919081815260200182805461080490612390565b801561084f5780601f106108265761010080835404028352916020019161084f565b820191905f5260205f20905b81548152906001019060200180831161083257829003601f168201915b505050505090806008015f9054906101000a900460ff16905089565b60025481565b610879611851565b6002548211156108be576040517f08c379a00000000000000000000000000000000000000000000000000000000081526004016108b5906121b4565b60405180910390fd5b60015f8381526020019081526020015f20604051806101200160405290815f82015481526020016001820180546108f490612390565b80601f016020809104026020016040519081016040528092919081815260200182805461092090612390565b801561096b5780601f106109425761010080835404028352916020019161096b565b820191905f5260205f20905b81548152906001019060200180831161094e57829003601f168201915b5050505050815260200160028201805461098490612390565b80601f01602080910402602001604051908101604052809291908181526020018280546109b090612390565b80156109fb5780601f106109d2576101008083540402835291602001916109fb565b820191905f5260205f20905b8154815290600101906020018083116109de57829003601f168201915b50505050508152602001600382018054610a1490612390565b80601f0160208091040260200160405190810160405280929190818152602001828054610a4090612390565b8015610a8b5780601f10610a6257610100808354040283529160200191610a8b565b820191905f5260205f20905b815481529060010190602001808311610a6e57829003601f168201915b50505050508152602001600482018054610aa490612390565b80601f0160208091040260200160405190810160405280929190818152602001828054610ad090612390565b8015610b1b5780601f10610af257610100808354040283529160200191610b1b565b820191905f5260205f20905b815481529060010190602001808311610afe57829003601f168201915b50505050508152602001600582015f9054906101000a900473ffffffffffffffffffffffffffffffffffffffff1673ffffffffffffffffffffffffffffffffffffffff1673ffffffffffffffffffffffffffffffffffffffff16815260200160068201548152602001600782018054610b9390612390565b80601f0160208091040260200160405190810160405280929190818152602001828054610bbf90612390565b8015610c0a5780601f10610be157610100808354040283529160200191610c0a565b820191905f5260205f20905b815481529060010190602001808311610bed57829003601f168201915b50505050508152602001600882015f9054906101000a900460ff1615151515815250509050919050565b5f8054906101000a900473ffffffffffffffffffffffffffffffffffffffff1681565b60605f610c63836116df565b90505f80600190505b6002548111610cfd578273ffffffffffffffffffffffffffffffffffffffff1660015f8381526020019081526020015f206005015f9054906101000a900473ffffffffffffffffffffffffffffffffffffffff1673ffffffffffffffffffffffffffffffffffffffff1603610cea578180610ce6906122f5565b9250505b8080610cf5906122f5565b915050610c6c565b505f8167ffffffffffffffff811115610d1957610d1861190d565b5b604051908082528060200260200182016040528015610d5257816020015b610d3f611851565b815260200190600190039081610d375790505b5090505f80600190505b600254811161117a578473ffffffffffffffffffffffffffffffffffffffff1660015f8381526020019081526020015f206005015f9054906101000a900473ffffffffffffffffffffffffffffffffffffffff1673ffffffffffffffffffffffffffffffffffffffff16036111675760015f8281526020019081526020015f20604051806101200160405290815f8201548152602001600182018054610e0190612390565b80601f0160208091040260200160405190810160405280929190818152602001828054610e2d90612390565b8015610e785780601f10610e4f57610100808354040283529160200191610e78565b820191905f5260205f20905b815481529060010190602001808311610e5b57829003601f168201915b50505050508152602001600282018054610e9190612390565b80601f0160208091040260200160405190810160405280929190818152602001828054610ebd90612390565b8015610f085780601f10610edf57610100808354040283529160200191610f08565b820191905f5260205f20905b815481529060010190602001808311610eeb57829003601f168201915b50505050508152602001600382018054610f2190612390565b80601f0160208091040260200160405190810160405280929190818152602001828054610f4d90612390565b8015610f985780601f10610f6f57610100808354040283529160200191610f98565b820191905f5260205f20905b815481529060010190602001808311610f7b57829003601f168201915b50505050508152602001600482018054610fb190612390565b80601f0160208091040260200160405190810160405280929190818152602001828054610fdd90612390565b80156110285780601f10610fff57610100808354040283529160200191611028565b820191905f5260205f20905b81548152906001019060200180831161100b57829003601f168201915b50505050508152602001600582015f9054906101000a900473ffffffffffffffffffffffffffffffffffffffff1673ffffffffffffffffffffffffffffffffffffffff1673ffffffffffffffffffffffffffffffffffffffff168152602001600682015481526020016007820180546110a090612390565b80601f01602080910402602001604051908101604052809291908181526020018280546110cc90612390565b80156111175780601f106110ee57610100808354040283529160200191611117565b820191905f5260205f20905b8154815290600101906020018083116110fa57829003601f168201915b50505050508152602001600882015f9054906101000a900460ff16151515158152505083838151811061114d5761114c612692565b5b60200260200101819052508180611163906122f5565b9250505b8080611172906122f5565b915050610d5c565b5081945050505050919050565b60605f60025467ffffffffffffffff8111156111a6576111a561190d565b5b6040519080825280602002602001820160405280156111df57816020015b6111cc611851565b8152602001906001900390816111c45790505b5090505f600190505b600254811161159d5760015f8281526020019081526020015f20604051806101200160405290815f820154815260200160018201805461122790612390565b80601f016020809104026020016040519081016040528092919081815260200182805461125390612390565b801561129e5780601f106112755761010080835404028352916020019161129e565b820191905f5260205f20905b81548152906001019060200180831161128157829003601f168201915b505050505081526020016002820180546112b790612390565b80601f01602080910402602001604051908101604052809291908181526020018280546112e390612390565b801561132e5780601f106113055761010080835404028352916020019161132e565b820191905f5260205f20905b81548152906001019060200180831161131157829003601f168201915b5050505050815260200160038201805461134790612390565b80601f016020809104026020016040519081016040528092919081815260200182805461137390612390565b80156113be5780601f10611395576101008083540402835291602001916113be565b820191905f5260205f20905b8154815290600101906020018083116113a157829003601f168201915b505050505081526020016004820180546113d790612390565b80601f016020809104026020016040519081016040528092919081815260200182805461140390612390565b801561144e5780601f106114255761010080835404028352916020019161144e565b820191905f5260205f20905b81548152906001019060200180831161143157829003601f168201915b50505050508152602001600582015f9054906101000a900473ffffffffffffffffffffffffffffffffffffffff1673ffffffffffffffffffffffffffffffffffffffff1673ffffffffffffffffffffffffffffffffffffffff168152602001600682015481526020016007820180546114c690612390565b80601f01602080910402602001604051908101604052809291908181526020018280546114f290612390565b801561153d5780601f106115145761010080835404028352916020019161153d565b820191905f5260205f20905b81548152906001019060200180831161152057829003601f168201915b50505050508152602001600882015f9054906101000a900460ff1615151515815250508260018361156e91906126bf565b8151811061157f5761157e612692565b5b60200260200101819052508080611595906122f5565b9150506111e8565b508091505090565b5f8054906101000a900473ffffffffffffffffffffffffffffffffffffffff1673ffffffffffffffffffffffffffffffffffffffff163373ffffffffffffffffffffffffffffffffffffffff1614611632576040517f08c379a000000000000000000000000000000000000000000000000000000000815260040161162990612762565b60405180910390fd5b600254821115611677576040517f08c379a000000000000000000000000000000000000000000000000000000000815260040161166e906121b4565b60405180910390fd5b8060015f8481526020019081526020015f206008015f6101000a81548160ff0219169083151502179055507f927952a2b75bc777764fc0705576c9afd4505f750c39435912843af08c9a67ce82826040516116d3929190612780565b60405180910390a15050565b5f808290505f8080600290505b602a8110156118455783818151811061170857611707612692565b5b602001015160f81c60f81b60f81c60ff16915060618273ffffffffffffffffffffffffffffffffffffffff1610158015611759575060668273ffffffffffffffffffffffffffffffffffffffff1611155b156117725760578261176b91906127a7565b915061181e565b60418273ffffffffffffffffffffffffffffffffffffffff16101580156117b0575060468273ffffffffffffffffffffffffffffffffffffffff1611155b156117c9576037826117c291906127a7565b915061181d565b60308273ffffffffffffffffffffffffffffffffffffffff1610158015611807575060398273ffffffffffffffffffffffffffffffffffffffff1611155b1561181c5760308261181991906127a7565b91505b5b5b8160108461182c91906127ee565b611836919061282f565b925080806001019150506116ec565b50819350505050919050565b6040518061012001604052805f8152602001606081526020016060815260200160608152602001606081526020015f73ffffffffffffffffffffffffffffffffffffffff1681526020015f8152602001606081526020015f151581525090565b5f604051905090565b5f80fd5b5f80fd5b5f819050919050565b6118d4816118c2565b81146118de575f80fd5b50565b5f813590506118ef816118cb565b92915050565b5f80fd5b5f80fd5b5f601f19601f8301169050919050565b7f4e487b71000000000000000000000000000000000000000000000000000000005f52604160045260245ffd5b611943826118fd565b810181811067ffffffffffffffff821117156119625761196161190d565b5b80604052505050565b5f6119746118b1565b9050611980828261193a565b919050565b5f67ffffffffffffffff82111561199f5761199e61190d565b5b6119a8826118fd565b9050602081019050919050565b828183375f83830152505050565b5f6119d56119d084611985565b61196b565b9050828152602081018484840111156119f1576119f06118f9565b5b6119fc8482856119b5565b509392505050565b5f82601f830112611a1857611a176118f5565b5b8135611a288482602086016119c3565b91505092915050565b5f8060408385031215611a4757611a466118ba565b5b5f611a54858286016118e1565b925050602083013567ffffffffffffffff811115611a7557611a746118be565b5b611a8185828601611a04565b9150509250929050565b5f805f805f8060c08789031215611aa557611aa46118ba565b5b5f87013567ffffffffffffffff811115611ac257611ac16118be565b5b611ace89828a01611a04565b965050602087013567ffffffffffffffff811115611aef57611aee6118be565b5b611afb89828a01611a04565b955050604087013567ffffffffffffffff811115611b1c57611b1b6118be565b5b611b2889828a01611a04565b945050606087013567ffffffffffffffff811115611b4957611b486118be565b5b611b5589828a01611a04565b935050608087013567ffffffffffffffff811115611b7657611b756118be565b5b611b8289828a01611a04565b92505060a087013567ffffffffffffffff811115611ba357611ba26118be565b5b611baf89828a01611a04565b9150509295509295509295565b5f60208284031215611bd157611bd06118ba565b5b5f611bde848285016118e1565b91505092915050565b611bf0816118c2565b82525050565b5f81519050919050565b5f82825260208201905092915050565b8281835e5f83830152505050565b5f611c2882611bf6565b611c328185611c00565b9350611c42818560208601611c10565b611c4b816118fd565b840191505092915050565b5f73ffffffffffffffffffffffffffffffffffffffff82169050919050565b5f611c7f82611c56565b9050919050565b611c8f81611c75565b82525050565b5f8115159050919050565b611ca981611c95565b82525050565b5f61012082019050611cc35f83018c611be7565b8181036020830152611cd5818b611c1e565b90508181036040830152611ce9818a611c1e565b90508181036060830152611cfd8189611c1e565b90508181036080830152611d118188611c1e565b9050611d2060a0830187611c86565b611d2d60c0830186611be7565b81810360e0830152611d3f8185611c1e565b9050611d4f610100830184611ca0565b9a9950505050505050505050565b5f602082019050611d705f830184611be7565b92915050565b611d7f816118c2565b82525050565b5f82825260208201905092915050565b5f611d9f82611bf6565b611da98185611d85565b9350611db9818560208601611c10565b611dc2816118fd565b840191505092915050565b611dd681611c75565b82525050565b611de581611c95565b82525050565b5f61012083015f830151611e015f860182611d76565b5060208301518482036020860152611e198282611d95565b91505060408301518482036040860152611e338282611d95565b91505060608301518482036060860152611e4d8282611d95565b91505060808301518482036080860152611e678282611d95565b91505060a0830151611e7c60a0860182611dcd565b5060c0830151611e8f60c0860182611d76565b5060e083015184820360e0860152611ea78282611d95565b915050610100830151611ebe610100860182611ddc565b508091505092915050565b5f6020820190508181035f830152611ee18184611deb565b905092915050565b5f602082019050611efc5f830184611c86565b92915050565b5f60208284031215611f1757611f166118ba565b5b5f82013567ffffffffffffffff811115611f3457611f336118be565b5b611f4084828501611a04565b91505092915050565b5f81519050919050565b5f82825260208201905092915050565b5f819050602082019050919050565b5f61012083015f830151611f885f860182611d76565b5060208301518482036020860152611fa08282611d95565b91505060408301518482036040860152611fba8282611d95565b91505060608301518482036060860152611fd48282611d95565b91505060808301518482036080860152611fee8282611d95565b91505060a083015161200360a0860182611dcd565b5060c083015161201660c0860182611d76565b5060e083015184820360e086015261202e8282611d95565b915050610100830151612045610100860182611ddc565b508091505092915050565b5f61205b8383611f72565b905092915050565b5f602082019050919050565b5f61207982611f49565b6120838185611f53565b93508360208202850161209585611f63565b805f5b858110156120d057848403895281516120b18582612050565b94506120bc83612063565b925060208a01995050600181019050612098565b50829750879550505050505092915050565b5f6020820190508181035f8301526120fa818461206f565b905092915050565b61210b81611c95565b8114612115575f80fd5b50565b5f8135905061212681612102565b92915050565b5f8060408385031215612142576121416118ba565b5b5f61214f858286016118e1565b925050602061216085828601612118565b9150509250929050565b7f5065746974696f6e20646f6573206e6f742065786973742e00000000000000005f82015250565b5f61219e601883611c00565b91506121a98261216a565b602082019050919050565b5f6020820190508181035f8301526121cb81612192565b9050919050565b7f5065746974696f6e20697320636c6f7365642e000000000000000000000000005f82015250565b5f612206601383611c00565b9150612211826121d2565b602082019050919050565b5f6020820190508181035f830152612233816121fa565b9050919050565b7f43726561746f722063616e6e6f74207369676e207468656972206f776e2070655f8201527f746974696f6e2e00000000000000000000000000000000000000000000000000602082015250565b5f612294602783611c00565b915061229f8261223a565b604082019050919050565b5f6020820190508181035f8301526122c181612288565b9050919050565b7f4e487b71000000000000000000000000000000000000000000000000000000005f52601160045260245ffd5b5f6122ff826118c2565b91507fffffffffffffffffffffffffffffffffffffffffffffffffffffffffffffffff8203612331576123306122c8565b5b600182019050919050565b5f60408201905061234f5f830185611be7565b61235c6020830184611c86565b9392505050565b7f4e487b71000000000000000000000000000000000000000000000000000000005f52602260045260245ffd5b5f60028204905060018216806123a757607f821691505b6020821081036123ba576123b9612363565b5b50919050565b5f819050815f5260205f209050919050565b5f6020601f8301049050919050565b5f82821b905092915050565b5f6008830261241c7fffffffffffffffffffffffffffffffffffffffffffffffffffffffffffffffff826123e1565b61242686836123e1565b95508019841693508086168417925050509392505050565b5f819050919050565b5f61246161245c612457846118c2565b61243e565b6118c2565b9050919050565b5f819050919050565b61247a83612447565b61248e61248682612468565b8484546123ed565b825550505050565b5f90565b6124a2612496565b6124ad818484612471565b505050565b5b818110156124d0576124c55f8261249a565b6001810190506124b3565b5050565b601f821115612515576124e6816123c0565b6124ef846123d2565b810160208510156124fe578190505b61251261250a856123d2565b8301826124b2565b50505b505050565b5f82821c905092915050565b5f6125355f198460080261251a565b1980831691505092915050565b5f61254d8383612526565b9150826002028217905092915050565b61256682611bf6565b67ffffffffffffffff81111561257f5761257e61190d565b5b6125898254612390565b6125948282856124d4565b5f60209050601f8311600181146125c5575f84156125b3578287015190505b6125bd8582612542565b865550612624565b601f1984166125d3866123c0565b5f5b828110156125fa578489015182556001820191506020850194506020810190506125d5565b868310156126175784890151612613601f891682612526565b8355505b6001600288020188555050505b505050505050565b5f60a08201905061263f5f830188611be7565b81810360208301526126518187611c1e565b90506126606040830186611c86565b81810360608301526126728185611c1e565b905081810360808301526126868184611c1e565b90509695505050505050565b7f4e487b71000000000000000000000000000000000000000000000000000000005f52603260045260245ffd5b5f6126c9826118c2565b91506126d4836118c2565b92508282039050818111156126ec576126eb6122c8565b5b92915050565b7f4f6e6c7920746865206f776e65722063616e20706572666f726d2074686973205f8201527f616374696f6e0000000000000000000000000000000000000000000000000000602082015250565b5f61274c602683611c00565b9150612757826126f2565b604082019050919050565b5f6020820190508181035f83015261277981612740565b9050919050565b5f6040820190506127935f830185611be7565b6127a06020830184611ca0565b9392505050565b5f6127b182611c56565b91506127bc83611c56565b9250828203905073ffffffffffffffffffffffffffffffffffffffff8111156127e8576127e76122c8565b5b92915050565b5f6127f882611c56565b915061280383611c56565b925082820261281181611c56565b91508282048414831517612828576128276122c8565b5b5092915050565b5f61283982611c56565b915061284483611c56565b9250828201905073ffffffffffffffffffffffffffffffffffffffff8111156128705761286f6122c8565b5b9291505056fea26469706673582212205de617641a399a07a65cc6c463b173e07ac5acf9770de1a445d7605a731384d264736f6c634300081a0033",
			"opcodes": "PUSH1 0x80 PUSH1 0x40 MSTORE CALLVALUE DUP1 ISZERO PUSH1 0xE JUMPI PUSH0 DUP1 REVERT JUMPDEST POP CALLER PUSH0 DUP1 PUSH2 0x100 EXP DUP2 SLOAD DUP2 PUSH20 0xFFFFFFFFFFFFFFFFFFFFFFFFFFFFFFFFFFFFFFFF MUL NOT AND SWAP1 DUP4 PUSH20 0xFFFFFFFFFFFFFFFFFFFFFFFFFFFFFFFFFFFFFFFF AND MUL OR SWAP1 SSTORE POP PUSH2 0x28AC DUP1 PUSH2 0x5B PUSH0 CODECOPY PUSH0 RETURN INVALID PUSH1 0x80 PUSH1 0x40 MSTORE CALLVALUE DUP1 ISZERO PUSH2 0xF JUMPI PUSH0 DUP1 REVERT JUMPDEST POP PUSH1 0x4 CALLDATASIZE LT PUSH2 0x91 JUMPI PUSH0 CALLDATALOAD PUSH1 0xE0 SHR DUP1 PUSH4 0x63EDC48F GT PUSH2 0x64 JUMPI DUP1 PUSH4 0x63EDC48F EQ PUSH2 0x123 JUMPI DUP1 PUSH4 0x8DA5CB5B EQ PUSH2 0x153 JUMPI DUP1 PUSH4 0x8FEF3FA3 EQ PUSH2 0x171 JUMPI DUP1 PUSH4 0x9A37C01E EQ PUSH2 0x1A1 JUMPI DUP1 PUSH4 0xADE1079D EQ PUSH2 0x1BF JUMPI PUSH2 0x91 JUMP JUMPDEST DUP1 PUSH4 0xBCB03D4 EQ PUSH2 0x95 JUMPI DUP1 PUSH4 0x19F6652E EQ PUSH2 0xB1 JUMPI DUP1 PUSH4 0x3AD50DED EQ PUSH2 0xCD JUMPI DUP1 PUSH4 0x61AB1F09 EQ PUSH2 0x105 JUMPI JUMPDEST PUSH0 DUP1 REVERT JUMPDEST PUSH2 0xAF PUSH1 0x4 DUP1 CALLDATASIZE SUB DUP2 ADD SWAP1 PUSH2 0xAA SWAP2 SWAP1 PUSH2 0x1A31 JUMP JUMPDEST PUSH2 0x1DB JUMP JUMPDEST STOP JUMPDEST PUSH2 0xCB PUSH1 0x4 DUP1 CALLDATASIZE SUB DUP2 ADD SWAP1 PUSH2 0xC6 SWAP2 SWAP1 PUSH2 0x1A8B JUMP JUMPDEST PUSH2 0x394 JUMP JUMPDEST STOP JUMPDEST PUSH2 0xE7 PUSH1 0x4 DUP1 CALLDATASIZE SUB DUP2 ADD SWAP1 PUSH2 0xE2 SWAP2 SWAP1 PUSH2 0x1BBC JUMP JUMPDEST PUSH2 0x558 JUMP JUMPDEST PUSH1 0x40 MLOAD PUSH2 0xFC SWAP10 SWAP9 SWAP8 SWAP7 SWAP6 SWAP5 SWAP4 SWAP3 SWAP2 SWAP1 PUSH2 0x1CAF JUMP JUMPDEST PUSH1 0x40 MLOAD DUP1 SWAP2 SUB SWAP1 RETURN JUMPDEST PUSH2 0x10D PUSH2 0x86B JUMP JUMPDEST PUSH1 0x40 MLOAD PUSH2 0x11A SWAP2 SWAP1 PUSH2 0x1D5D JUMP JUMPDEST PUSH1 0x40 MLOAD DUP1 SWAP2 SUB SWAP1 RETURN JUMPDEST PUSH2 0x13D PUSH1 0x4 DUP1 CALLDATASIZE SUB DUP2 ADD SWAP1 PUSH2 0x138 SWAP2 SWAP1 PUSH2 0x1BBC JUMP JUMPDEST PUSH2 0x871 JUMP JUMPDEST PUSH1 0x40 MLOAD PUSH2 0x14A SWAP2 SWAP1 PUSH2 0x1EC9 JUMP JUMPDEST PUSH1 0x40 MLOAD DUP1 SWAP2 SUB SWAP1 RETURN JUMPDEST PUSH2 0x15B PUSH2 0xC34 JUMP JUMPDEST PUSH1 0x40 MLOAD PUSH2 0x168 SWAP2 SWAP1 PUSH2 0x1EE9 JUMP JUMPDEST PUSH1 0x40 MLOAD DUP1 SWAP2 SUB SWAP1 RETURN JUMPDEST PUSH2 0x18B PUSH1 0x4 DUP1 CALLDATASIZE SUB DUP2 ADD SWAP1 PUSH2 0x186 SWAP2 SWAP1 PUSH2 0x1F02 JUMP JUMPDEST PUSH2 0xC57 JUMP JUMPDEST PUSH1 0x40 MLOAD PUSH2 0x198 SWAP2 SWAP1 PUSH2 0x20E2 JUMP JUMPDEST PUSH1 0x40 MLOAD DUP1 SWAP2 SUB SWAP1 RETURN JUMPDEST PUSH2 0x1A9 PUSH2 0x1187 JUMP JUMPDEST PUSH1 0x40 MLOAD PUSH2 0x1B6 SWAP2 SWAP1 PUSH2 0x20E2 JUMP JUMPDEST PUSH1 0x40 MLOAD DUP1 SWAP2 SUB SWAP1 RETURN JUMPDEST PUSH2 0x1D9 PUSH1 0x4 DUP1 CALLDATASIZE SUB DUP2 ADD SWAP1 PUSH2 0x1D4 SWAP2 SWAP1 PUSH2 0x212C JUMP JUMPDEST PUSH2 0x15A5 JUMP JUMPDEST STOP JUMPDEST PUSH0 PUSH2 0x1E5 DUP3 PUSH2 0x16DF JUMP JUMPDEST SWAP1 POP PUSH1 0x2 SLOAD DUP4 GT ISZERO PUSH2 0x22C JUMPI PUSH1 0x40 MLOAD PUSH32 0x8C379A000000000000000000000000000000000000000000000000000000000 DUP2 MSTORE PUSH1 0x4 ADD PUSH2 0x223 SWAP1 PUSH2 0x21B4 JUMP JUMPDEST PUSH1 0x40 MLOAD DUP1 SWAP2 SUB SWAP1 REVERT JUMPDEST PUSH1 0x1 PUSH0 DUP5 DUP2 MSTORE PUSH1 0x20 ADD SWAP1 DUP2 MSTORE PUSH1 0x20 ADD PUSH0 KECCAK256 PUSH1 0x8 ADD PUSH0 SWAP1 SLOAD SWAP1 PUSH2 0x100 EXP SWAP1 DIV PUSH1 0xFF AND PUSH2 0x28C JUMPI PUSH1 0x40 MLOAD PUSH32 0x8C379A000000000000000000000000000000000000000000000000000000000 DUP2 MSTORE PUSH1 0x4 ADD PUSH2 0x283 SWAP1 PUSH2 0x221C JUMP JUMPDEST PUSH1 0x40 MLOAD DUP1 SWAP2 SUB SWAP1 REVERT JUMPDEST DUP1 PUSH20 0xFFFFFFFFFFFFFFFFFFFFFFFFFFFFFFFFFFFFFFFF AND PUSH1 0x1 PUSH0 DUP6 DUP2 MSTORE PUSH1 0x20 ADD SWAP1 DUP2 MSTORE PUSH1 0x20 ADD PUSH0 KECCAK256 PUSH1 0x5 ADD PUSH0 SWAP1 SLOAD SWAP1 PUSH2 0x100 EXP SWAP1 DIV PUSH20 0xFFFFFFFFFFFFFFFFFFFFFFFFFFFFFFFFFFFFFFFF AND PUSH20 0xFFFFFFFFFFFFFFFFFFFFFFFFFFFFFFFFFFFFFFFF AND SUB PUSH2 0x32D JUMPI PUSH1 0x40 MLOAD PUSH32 0x8C379A000000000000000000000000000000000000000000000000000000000 DUP2 MSTORE PUSH1 0x4 ADD PUSH2 0x324 SWAP1 PUSH2 0x22AA JUMP JUMPDEST PUSH1 0x40 MLOAD DUP1 SWAP2 SUB SWAP1 REVERT JUMPDEST PUSH1 0x1 PUSH0 DUP5 DUP2 MSTORE PUSH1 0x20 ADD SWAP1 DUP2 MSTORE PUSH1 0x20 ADD PUSH0 KECCAK256 PUSH1 0x6 ADD PUSH0 DUP2 SLOAD DUP1 SWAP3 SWAP2 SWAP1 PUSH2 0x351 SWAP1 PUSH2 0x22F5 JUMP JUMPDEST SWAP2 SWAP1 POP SSTORE POP PUSH32 0xA24773234734FA56D66CE98FB6D0C8E4B38C3CE67E8A0CFA10756D0909BA4ED2 DUP4 DUP3 PUSH1 0x40 MLOAD PUSH2 0x387 SWAP3 SWAP2 SWAP1 PUSH2 0x233C JUMP JUMPDEST PUSH1 0x40 MLOAD DUP1 SWAP2 SUB SWAP1 LOG1 POP POP POP JUMP JUMPDEST PUSH1 0x2 PUSH0 DUP2 SLOAD DUP1 SWAP3 SWAP2 SWAP1 PUSH2 0x3A6 SWAP1 PUSH2 0x22F5 JUMP JUMPDEST SWAP2 SWAP1 POP SSTORE POP PUSH0 PUSH2 0x3B5 DUP3 PUSH2 0x16DF JUMP JUMPDEST SWAP1 POP PUSH1 0x40 MLOAD DUP1 PUSH2 0x120 ADD PUSH1 0x40 MSTORE DUP1 PUSH1 0x2 SLOAD DUP2 MSTORE PUSH1 0x20 ADD DUP9 DUP2 MSTORE PUSH1 0x20 ADD DUP8 DUP2 MSTORE PUSH1 0x20 ADD DUP7 DUP2 MSTORE PUSH1 0x20 ADD DUP6 DUP2 MSTORE PUSH1 0x20 ADD DUP3 PUSH20 0xFFFFFFFFFFFFFFFFFFFFFFFFFFFFFFFFFFFFFFFF AND DUP2 MSTORE PUSH1 0x20 ADD PUSH0 DUP2 MSTORE PUSH1 0x20 ADD DUP5 DUP2 MSTORE PUSH1 0x20 ADD PUSH1 0x1 ISZERO ISZERO DUP2 MSTORE POP PUSH1 0x1 PUSH0 PUSH1 0x2 SLOAD DUP2 MSTORE PUSH1 0x20 ADD SWAP1 DUP2 MSTORE PUSH1 0x20 ADD PUSH0 KECCAK256 PUSH0 DUP3 ADD MLOAD DUP2 PUSH0 ADD SSTORE PUSH1 0x20 DUP3 ADD MLOAD DUP2 PUSH1 0x1 ADD SWAP1 DUP2 PUSH2 0x442 SWAP2 SWAP1 PUSH2 0x255D JUMP JUMPDEST POP PUSH1 0x40 DUP3 ADD MLOAD DUP2 PUSH1 0x2 ADD SWAP1 DUP2 PUSH2 0x458 SWAP2 SWAP1 PUSH2 0x255D JUMP JUMPDEST POP PUSH1 0x60 DUP3 ADD MLOAD DUP2 PUSH1 0x3 ADD SWAP1 DUP2 PUSH2 0x46E SWAP2 SWAP1 PUSH2 0x255D JUMP JUMPDEST POP PUSH1 0x80 DUP3 ADD MLOAD DUP2 PUSH1 0x4 ADD SWAP1 DUP2 PUSH2 0x484 SWAP2 SWAP1 PUSH2 0x255D JUMP JUMPDEST POP PUSH1 0xA0 DUP3 ADD MLOAD DUP2 PUSH1 0x5 ADD PUSH0 PUSH2 0x100 EXP DUP2 SLOAD DUP2 PUSH20 0xFFFFFFFFFFFFFFFFFFFFFFFFFFFFFFFFFFFFFFFF MUL NOT AND SWAP1 DUP4 PUSH20 0xFFFFFFFFFFFFFFFFFFFFFFFFFFFFFFFFFFFFFFFF AND MUL OR SWAP1 SSTORE POP PUSH1 0xC0 DUP3 ADD MLOAD DUP2 PUSH1 0x6 ADD SSTORE PUSH1 0xE0 DUP3 ADD MLOAD DUP2 PUSH1 0x7 ADD SWAP1 DUP2 PUSH2 0x4EA SWAP2 SWAP1 PUSH2 0x255D JUMP JUMPDEST POP PUSH2 0x100 DUP3 ADD MLOAD DUP2 PUSH1 0x8 ADD PUSH0 PUSH2 0x100 EXP DUP2 SLOAD DUP2 PUSH1 0xFF MUL NOT AND SWAP1 DUP4 ISZERO ISZERO MUL OR SWAP1 SSTORE POP SWAP1 POP POP PUSH32 0x2909F23C3C8E4E4457358D712A88F66706A1D69641A1D3DEC46EAFCBA08642C9 PUSH1 0x2 SLOAD DUP9 CALLER DUP9 DUP8 PUSH1 0x40 MLOAD PUSH2 0x547 SWAP6 SWAP5 SWAP4 SWAP3 SWAP2 SWAP1 PUSH2 0x262C JUMP JUMPDEST PUSH1 0x40 MLOAD DUP1 SWAP2 SUB SWAP1 LOG1 POP POP POP POP POP POP POP JUMP JUMPDEST PUSH1 0x1 PUSH1 0x20 MSTORE DUP1 PUSH0 MSTORE PUSH1 0x40 PUSH0 KECCAK256 PUSH0 SWAP2 POP SWAP1 POP DUP1 PUSH0 ADD SLOAD SWAP1 DUP1 PUSH1 0x1 ADD DUP1 SLOAD PUSH2 0x57D SWAP1 PUSH2 0x2390 JUMP JUMPDEST DUP1 PUSH1 0x1F ADD PUSH1 0x20 DUP1 SWAP2 DIV MUL PUSH1 0x20 ADD PUSH1 0x40 MLOAD SWAP1 DUP2 ADD PUSH1 0x40 MSTORE DUP1 SWAP3 SWAP2 SWAP1 DUP2 DUP2 MSTORE PUSH1 0x20 ADD DUP3 DUP1 SLOAD PUSH2 0x5A9 SWAP1 PUSH2 0x2390 JUMP JUMPDEST DUP1 ISZERO PUSH2 0x5F4 JUMPI DUP1 PUSH1 0x1F LT PUSH2 0x5CB JUMPI PUSH2 0x100 DUP1 DUP4 SLOAD DIV MUL DUP4 MSTORE SWAP2 PUSH1 0x20 ADD SWAP2 PUSH2 0x5F4 JUMP JUMPDEST DUP3 ADD SWAP2 SWAP1 PUSH0 MSTORE PUSH1 0x20 PUSH0 KECCAK256 SWAP1 JUMPDEST DUP2 SLOAD DUP2 MSTORE SWAP1 PUSH1 0x1 ADD SWAP1 PUSH1 0x20 ADD DUP1 DUP4 GT PUSH2 0x5D7 JUMPI DUP3 SWAP1 SUB PUSH1 0x1F AND DUP3 ADD SWAP2 JUMPDEST POP POP POP POP POP SWAP1 DUP1 PUSH1 0x2 ADD DUP1 SLOAD PUSH2 0x609 SWAP1 PUSH2 0x2390 JUMP JUMPDEST DUP1 PUSH1 0x1F ADD PUSH1 0x20 DUP1 SWAP2 DIV MUL PUSH1 0x20 ADD PUSH1 0x40 MLOAD SWAP1 DUP2 ADD PUSH1 0x40 MSTORE DUP1 SWAP3 SWAP2 SWAP1 DUP2 DUP2 MSTORE PUSH1 0x20 ADD DUP3 DUP1 SLOAD PUSH2 0x635 SWAP1 PUSH2 0x2390 JUMP JUMPDEST DUP1 ISZERO PUSH2 0x680 JUMPI DUP1 PUSH1 0x1F LT PUSH2 0x657 JUMPI PUSH2 0x100 DUP1 DUP4 SLOAD DIV MUL DUP4 MSTORE SWAP2 PUSH1 0x20 ADD SWAP2 PUSH2 0x680 JUMP JUMPDEST DUP3 ADD SWAP2 SWAP1 PUSH0 MSTORE PUSH1 0x20 PUSH0 KECCAK256 SWAP1 JUMPDEST DUP2 SLOAD DUP2 MSTORE SWAP1 PUSH1 0x1 ADD SWAP1 PUSH1 0x20 ADD DUP1 DUP4 GT PUSH2 0x663 JUMPI DUP3 SWAP1 SUB PUSH1 0x1F AND DUP3 ADD SWAP2 JUMPDEST POP POP POP POP POP SWAP1 DUP1 PUSH1 0x3 ADD DUP1 SLOAD PUSH2 0x695 SWAP1 PUSH2 0x2390 JUMP JUMPDEST DUP1 PUSH1 0x1F ADD PUSH1 0x20 DUP1 SWAP2 DIV MUL PUSH1 0x20 ADD PUSH1 0x40 MLOAD SWAP1 DUP2 ADD PUSH1 0x40 MSTORE DUP1 SWAP3 SWAP2 SWAP1 DUP2 DUP2 MSTORE PUSH1 0x20 ADD DUP3 DUP1 SLOAD PUSH2 0x6C1 SWAP1 PUSH2 0x2390 JUMP JUMPDEST DUP1 ISZERO PUSH2 0x70C JUMPI DUP1 PUSH1 0x1F LT PUSH2 0x6E3 JUMPI PUSH2 0x100 DUP1 DUP4 SLOAD DIV MUL DUP4 MSTORE SWAP2 PUSH1 0x20 ADD SWAP2 PUSH2 0x70C JUMP JUMPDEST DUP3 ADD SWAP2 SWAP1 PUSH0 MSTORE PUSH1 0x20 PUSH0 KECCAK256 SWAP1 JUMPDEST DUP2 SLOAD DUP2 MSTORE SWAP1 PUSH1 0x1 ADD SWAP1 PUSH1 0x20 ADD DUP1 DUP4 GT PUSH2 0x6EF JUMPI DUP3 SWAP1 SUB PUSH1 0x1F AND DUP3 ADD SWAP2 JUMPDEST POP POP POP POP POP SWAP1 DUP1 PUSH1 0x4 ADD DUP1 SLOAD PUSH2 0x721 SWAP1 PUSH2 0x2390 JUMP JUMPDEST DUP1 PUSH1 0x1F ADD PUSH1 0x20 DUP1 SWAP2 DIV MUL PUSH1 0x20 ADD PUSH1 0x40 MLOAD SWAP1 DUP2 ADD PUSH1 0x40 MSTORE DUP1 SWAP3 SWAP2 SWAP1 DUP2 DUP2 MSTORE PUSH1 0x20 ADD DUP3 DUP1 SLOAD PUSH2 0x74D SWAP1 PUSH2 0x2390 JUMP JUMPDEST DUP1 ISZERO PUSH2 0x798 JUMPI DUP1 PUSH1 0x1F LT PUSH2 0x76F JUMPI PUSH2 0x100 DUP1 DUP4 SLOAD DIV MUL DUP4 MSTORE SWAP2 PUSH1 0x20 ADD SWAP2 PUSH2 0x798 JUMP JUMPDEST DUP3 ADD SWAP2 SWAP1 PUSH0 MSTORE PUSH1 0x20 PUSH0 KECCAK256 SWAP1 JUMPDEST DUP2 SLOAD DUP2 MSTORE SWAP1 PUSH1 0x1 ADD SWAP1 PUSH1 0x20 ADD DUP1 DUP4 GT PUSH2 0x77B JUMPI DUP3 SWAP1 SUB PUSH1 0x1F AND DUP3 ADD SWAP2 JUMPDEST POP POP POP POP POP SWAP1 DUP1 PUSH1 0x5 ADD PUSH0 SWAP1 SLOAD SWAP1 PUSH2 0x100 EXP SWAP1 DIV PUSH20 0xFFFFFFFFFFFFFFFFFFFFFFFFFFFFFFFFFFFFFFFF AND SWAP1 DUP1 PUSH1 0x6 ADD SLOAD SWAP1 DUP1 PUSH1 0x7 ADD DUP1 SLOAD PUSH2 0x7D8 SWAP1 PUSH2 0x2390 JUMP JUMPDEST DUP1 PUSH1 0x1F ADD PUSH1 0x20 DUP1 SWAP2 DIV MUL PUSH1 0x20 ADD PUSH1 0x40 MLOAD SWAP1 DUP2 ADD PUSH1 0x40 MSTORE DUP1 SWAP3 SWAP2 SWAP1 DUP2 DUP2 MSTORE PUSH1 0x20 ADD DUP3 DUP1 SLOAD PUSH2 0x804 SWAP1 PUSH2 0x2390 JUMP JUMPDEST DUP1 ISZERO PUSH2 0x84F JUMPI DUP1 PUSH1 0x1F LT PUSH2 0x826 JUMPI PUSH2 0x100 DUP1 DUP4 SLOAD DIV MUL DUP4 MSTORE SWAP2 PUSH1 0x20 ADD SWAP2 PUSH2 0x84F JUMP JUMPDEST DUP3 ADD SWAP2 SWAP1 PUSH0 MSTORE PUSH1 0x20 PUSH0 KECCAK256 SWAP1 JUMPDEST DUP2 SLOAD DUP2 MSTORE SWAP1 PUSH1 0x1 ADD SWAP1 PUSH1 0x20 ADD DUP1 DUP4 GT PUSH2 0x832 JUMPI DUP3 SWAP1 SUB PUSH1 0x1F AND DUP3 ADD SWAP2 JUMPDEST POP POP POP POP POP SWAP1 DUP1 PUSH1 0x8 ADD PUSH0 SWAP1 SLOAD SWAP1 PUSH2 0x100 EXP SWAP1 DIV PUSH1 0xFF AND SWAP1 POP DUP10 JUMP JUMPDEST PUSH1 0x2 SLOAD DUP2 JUMP JUMPDEST PUSH2 0x879 PUSH2 0x1851 JUMP JUMPDEST PUSH1 0x2 SLOAD DUP3 GT ISZERO PUSH2 0x8BE JUMPI PUSH1 0x40 MLOAD PUSH32 0x8C379A000000000000000000000000000000000000000000000000000000000 DUP2 MSTORE PUSH1 0x4 ADD PUSH2 0x8B5 SWAP1 PUSH2 0x21B4 JUMP JUMPDEST PUSH1 0x40 MLOAD DUP1 SWAP2 SUB SWAP1 REVERT JUMPDEST PUSH1 0x1 PUSH0 DUP4 DUP2 MSTORE PUSH1 0x20 ADD SWAP1 DUP2 MSTORE PUSH1 0x20 ADD PUSH0 KECCAK256 PUSH1 0x40 MLOAD DUP1 PUSH2 0x120 ADD PUSH1 0x40 MSTORE SWAP1 DUP2 PUSH0 DUP3 ADD SLOAD DUP2 MSTORE PUSH1 0x20 ADD PUSH1 0x1 DUP3 ADD DUP1 SLOAD PUSH2 0x8F4 SWAP1 PUSH2 0x2390 JUMP JUMPDEST DUP1 PUSH1 0x1F ADD PUSH1 0x20 DUP1 SWAP2 DIV MUL PUSH1 0x20 ADD PUSH1 0x40 MLOAD SWAP1 DUP2 ADD PUSH1 0x40 MSTORE DUP1 SWAP3 SWAP2 SWAP1 DUP2 DUP2 MSTORE PUSH1 0x20 ADD DUP3 DUP1 SLOAD PUSH2 0x920 SWAP1 PUSH2 0x2390 JUMP JUMPDEST DUP1 ISZERO PUSH2 0x96B JUMPI DUP1 PUSH1 0x1F LT PUSH2 0x942 JUMPI PUSH2 0x100 DUP1 DUP4 SLOAD DIV MUL DUP4 MSTORE SWAP2 PUSH1 0x20 ADD SWAP2 PUSH2 0x96B JUMP JUMPDEST DUP3 ADD SWAP2 SWAP1 PUSH0 MSTORE PUSH1 0x20 PUSH0 KECCAK256 SWAP1 JUMPDEST DUP2 SLOAD DUP2 MSTORE SWAP1 PUSH1 0x1 ADD SWAP1 PUSH1 0x20 ADD DUP1 DUP4 GT PUSH2 0x94E JUMPI DUP3 SWAP1 SUB PUSH1 0x1F AND DUP3 ADD SWAP2 JUMPDEST POP POP POP POP POP DUP2 MSTORE PUSH1 0x20 ADD PUSH1 0x2 DUP3 ADD DUP1 SLOAD PUSH2 0x984 SWAP1 PUSH2 0x2390 JUMP JUMPDEST DUP1 PUSH1 0x1F ADD PUSH1 0x20 DUP1 SWAP2 DIV MUL PUSH1 0x20 ADD PUSH1 0x40 MLOAD SWAP1 DUP2 ADD PUSH1 0x40 MSTORE DUP1 SWAP3 SWAP2 SWAP1 DUP2 DUP2 MSTORE PUSH1 0x20 ADD DUP3 DUP1 SLOAD PUSH2 0x9B0 SWAP1 PUSH2 0x2390 JUMP JUMPDEST DUP1 ISZERO PUSH2 0x9FB JUMPI DUP1 PUSH1 0x1F LT PUSH2 0x9D2 JUMPI PUSH2 0x100 DUP1 DUP4 SLOAD DIV MUL DUP4 MSTORE SWAP2 PUSH1 0x20 ADD SWAP2 PUSH2 0x9FB JUMP JUMPDEST DUP3 ADD SWAP2 SWAP1 PUSH0 MSTORE PUSH1 0x20 PUSH0 KECCAK256 SWAP1 JUMPDEST DUP2 SLOAD DUP2 MSTORE SWAP1 PUSH1 0x1 ADD SWAP1 PUSH1 0x20 ADD DUP1 DUP4 GT PUSH2 0x9DE JUMPI DUP3 SWAP1 SUB PUSH1 0x1F AND DUP3 ADD SWAP2 JUMPDEST POP POP POP POP POP DUP2 MSTORE PUSH1 0x20 ADD PUSH1 0x3 DUP3 ADD DUP1 SLOAD PUSH2 0xA14 SWAP1 PUSH2 0x2390 JUMP JUMPDEST DUP1 PUSH1 0x1F ADD PUSH1 0x20 DUP1 SWAP2 DIV MUL PUSH1 0x20 ADD PUSH1 0x40 MLOAD SWAP1 DUP2 ADD PUSH1 0x40 MSTORE DUP1 SWAP3 SWAP2 SWAP1 DUP2 DUP2 MSTORE PUSH1 0x20 ADD DUP3 DUP1 SLOAD PUSH2 0xA40 SWAP1 PUSH2 0x2390 JUMP JUMPDEST DUP1 ISZERO PUSH2 0xA8B JUMPI DUP1 PUSH1 0x1F LT PUSH2 0xA62 JUMPI PUSH2 0x100 DUP1 DUP4 SLOAD DIV MUL DUP4 MSTORE SWAP2 PUSH1 0x20 ADD SWAP2 PUSH2 0xA8B JUMP JUMPDEST DUP3 ADD SWAP2 SWAP1 PUSH0 MSTORE PUSH1 0x20 PUSH0 KECCAK256 SWAP1 JUMPDEST DUP2 SLOAD DUP2 MSTORE SWAP1 PUSH1 0x1 ADD SWAP1 PUSH1 0x20 ADD DUP1 DUP4 GT PUSH2 0xA6E JUMPI DUP3 SWAP1 SUB PUSH1 0x1F AND DUP3 ADD SWAP2 JUMPDEST POP POP POP POP POP DUP2 MSTORE PUSH1 0x20 ADD PUSH1 0x4 DUP3 ADD DUP1 SLOAD PUSH2 0xAA4 SWAP1 PUSH2 0x2390 JUMP JUMPDEST DUP1 PUSH1 0x1F ADD PUSH1 0x20 DUP1 SWAP2 DIV MUL PUSH1 0x20 ADD PUSH1 0x40 MLOAD SWAP1 DUP2 ADD PUSH1 0x40 MSTORE DUP1 SWAP3 SWAP2 SWAP1 DUP2 DUP2 MSTORE PUSH1 0x20 ADD DUP3 DUP1 SLOAD PUSH2 0xAD0 SWAP1 PUSH2 0x2390 JUMP JUMPDEST DUP1 ISZERO PUSH2 0xB1B JUMPI DUP1 PUSH1 0x1F LT PUSH2 0xAF2 JUMPI PUSH2 0x100 DUP1 DUP4 SLOAD DIV MUL DUP4 MSTORE SWAP2 PUSH1 0x20 ADD SWAP2 PUSH2 0xB1B JUMP JUMPDEST DUP3 ADD SWAP2 SWAP1 PUSH0 MSTORE PUSH1 0x20 PUSH0 KECCAK256 SWAP1 JUMPDEST DUP2 SLOAD DUP2 MSTORE SWAP1 PUSH1 0x1 ADD SWAP1 PUSH1 0x20 ADD DUP1 DUP4 GT PUSH2 0xAFE JUMPI DUP3 SWAP1 SUB PUSH1 0x1F AND DUP3 ADD SWAP2 JUMPDEST POP POP POP POP POP DUP2 MSTORE PUSH1 0x20 ADD PUSH1 0x5 DUP3 ADD PUSH0 SWAP1 SLOAD SWAP1 PUSH2 0x100 EXP SWAP1 DIV PUSH20 0xFFFFFFFFFFFFFFFFFFFFFFFFFFFFFFFFFFFFFFFF AND PUSH20 0xFFFFFFFFFFFFFFFFFFFFFFFFFFFFFFFFFFFFFFFF AND PUSH20 0xFFFFFFFFFFFFFFFFFFFFFFFFFFFFFFFFFFFFFFFF AND DUP2 MSTORE PUSH1 0x20 ADD PUSH1 0x6 DUP3 ADD SLOAD DUP2 MSTORE PUSH1 0x20 ADD PUSH1 0x7 DUP3 ADD DUP1 SLOAD PUSH2 0xB93 SWAP1 PUSH2 0x2390 JUMP JUMPDEST DUP1 PUSH1 0x1F ADD PUSH1 0x20 DUP1 SWAP2 DIV MUL PUSH1 0x20 ADD PUSH1 0x40 MLOAD SWAP1 DUP2 ADD PUSH1 0x40 MSTORE DUP1 SWAP3 SWAP2 SWAP1 DUP2 DUP2 MSTORE PUSH1 0x20 ADD DUP3 DUP1 SLOAD PUSH2 0xBBF SWAP1 PUSH2 0x2390 JUMP JUMPDEST DUP1 ISZERO PUSH2 0xC0A JUMPI DUP1 PUSH1 0x1F LT PUSH2 0xBE1 JUMPI PUSH2 0x100 DUP1 DUP4 SLOAD DIV MUL DUP4 MSTORE SWAP2 PUSH1 0x20 ADD SWAP2 PUSH2 0xC0A JUMP JUMPDEST DUP3 ADD SWAP2 SWAP1 PUSH0 MSTORE PUSH1 0x20 PUSH0 KECCAK256 SWAP1 JUMPDEST DUP2 SLOAD DUP2 MSTORE SWAP1 PUSH1 0x1 ADD SWAP1 PUSH1 0x20 ADD DUP1 DUP4 GT PUSH2 0xBED JUMPI DUP3 SWAP1 SUB PUSH1 0x1F AND DUP3 ADD SWAP2 JUMPDEST POP POP POP POP POP DUP2 MSTORE PUSH1 0x20 ADD PUSH1 0x8 DUP3 ADD PUSH0 SWAP1 SLOAD SWAP1 PUSH2 0x100 EXP SWAP1 DIV PUSH1 0xFF AND ISZERO ISZERO ISZERO ISZERO DUP2 MSTORE POP POP SWAP1 POP SWAP2 SWAP1 POP JUMP JUMPDEST PUSH0 DUP1 SLOAD SWAP1 PUSH2 0x100 EXP SWAP1 DIV PUSH20 0xFFFFFFFFFFFFFFFFFFFFFFFFFFFFFFFFFFFFFFFF AND DUP2 JUMP JUMPDEST PUSH1 0x60 PUSH0 PUSH2 0xC63 DUP4 PUSH2 0x16DF JUMP JUMPDEST SWAP1 POP PUSH0 DUP1 PUSH1 0x1 SWAP1 POP JUMPDEST PUSH1 0x2 SLOAD DUP2 GT PUSH2 0xCFD JUMPI DUP3 PUSH20 0xFFFFFFFFFFFFFFFFFFFFFFFFFFFFFFFFFFFFFFFF AND PUSH1 0x1 PUSH0 DUP4 DUP2 MSTORE PUSH1 0x20 ADD SWAP1 DUP2 MSTORE PUSH1 0x20 ADD PUSH0 KECCAK256 PUSH1 0x5 ADD PUSH0 SWAP1 SLOAD SWAP1 PUSH2 0x100 EXP SWAP1 DIV PUSH20 0xFFFFFFFFFFFFFFFFFFFFFFFFFFFFFFFFFFFFFFFF AND PUSH20 0xFFFFFFFFFFFFFFFFFFFFFFFFFFFFFFFFFFFFFFFF AND SUB PUSH2 0xCEA JUMPI DUP2 DUP1 PUSH2 0xCE6 SWAP1 PUSH2 0x22F5 JUMP JUMPDEST SWAP3 POP POP JUMPDEST DUP1 DUP1 PUSH2 0xCF5 SWAP1 PUSH2 0x22F5 JUMP JUMPDEST SWAP2 POP POP PUSH2 0xC6C JUMP JUMPDEST POP PUSH0 DUP2 PUSH8 0xFFFFFFFFFFFFFFFF DUP2 GT ISZERO PUSH2 0xD19 JUMPI PUSH2 0xD18 PUSH2 0x190D JUMP JUMPDEST JUMPDEST PUSH1 0x40 MLOAD SWAP1 DUP1 DUP3 MSTORE DUP1 PUSH1 0x20 MUL PUSH1 0x20 ADD DUP3 ADD PUSH1 0x40 MSTORE DUP1 ISZERO PUSH2 0xD52 JUMPI DUP2 PUSH1 0x20 ADD JUMPDEST PUSH2 0xD3F PUSH2 0x1851 JUMP JUMPDEST DUP2 MSTORE PUSH1 0x20 ADD SWAP1 PUSH1 0x1 SWAP1 SUB SWAP1 DUP2 PUSH2 0xD37 JUMPI SWAP1 POP JUMPDEST POP SWAP1 POP PUSH0 DUP1 PUSH1 0x1 SWAP1 POP JUMPDEST PUSH1 0x2 SLOAD DUP2 GT PUSH2 0x117A JUMPI DUP5 PUSH20 0xFFFFFFFFFFFFFFFFFFFFFFFFFFFFFFFFFFFFFFFF AND PUSH1 0x1 PUSH0 DUP4 DUP2 MSTORE PUSH1 0x20 ADD SWAP1 DUP2 MSTORE PUSH1 0x20 ADD PUSH0 KECCAK256 PUSH1 0x5 ADD PUSH0 SWAP1 SLOAD SWAP1 PUSH2 0x100 EXP SWAP1 DIV PUSH20 0xFFFFFFFFFFFFFFFFFFFFFFFFFFFFFFFFFFFFFFFF AND PUSH20 0xFFFFFFFFFFFFFFFFFFFFFFFFFFFFFFFFFFFFFFFF AND SUB PUSH2 0x1167 JUMPI PUSH1 0x1 PUSH0 DUP3 DUP2 MSTORE PUSH1 0x20 ADD SWAP1 DUP2 MSTORE PUSH1 0x20 ADD PUSH0 KECCAK256 PUSH1 0x40 MLOAD DUP1 PUSH2 0x120 ADD PUSH1 0x40 MSTORE SWAP1 DUP2 PUSH0 DUP3 ADD SLOAD DUP2 MSTORE PUSH1 0x20 ADD PUSH1 0x1 DUP3 ADD DUP1 SLOAD PUSH2 0xE01 SWAP1 PUSH2 0x2390 JUMP JUMPDEST DUP1 PUSH1 0x1F ADD PUSH1 0x20 DUP1 SWAP2 DIV MUL PUSH1 0x20 ADD PUSH1 0x40 MLOAD SWAP1 DUP2 ADD PUSH1 0x40 MSTORE DUP1 SWAP3 SWAP2 SWAP1 DUP2 DUP2 MSTORE PUSH1 0x20 ADD DUP3 DUP1 SLOAD PUSH2 0xE2D SWAP1 PUSH2 0x2390 JUMP JUMPDEST DUP1 ISZERO PUSH2 0xE78 JUMPI DUP1 PUSH1 0x1F LT PUSH2 0xE4F JUMPI PUSH2 0x100 DUP1 DUP4 SLOAD DIV MUL DUP4 MSTORE SWAP2 PUSH1 0x20 ADD SWAP2 PUSH2 0xE78 JUMP JUMPDEST DUP3 ADD SWAP2 SWAP1 PUSH0 MSTORE PUSH1 0x20 PUSH0 KECCAK256 SWAP1 JUMPDEST DUP2 SLOAD DUP2 MSTORE SWAP1 PUSH1 0x1 ADD SWAP1 PUSH1 0x20 ADD DUP1 DUP4 GT PUSH2 0xE5B JUMPI DUP3 SWAP1 SUB PUSH1 0x1F AND DUP3 ADD SWAP2 JUMPDEST POP POP POP POP POP DUP2 MSTORE PUSH1 0x20 ADD PUSH1 0x2 DUP3 ADD DUP1 SLOAD PUSH2 0xE91 SWAP1 PUSH2 0x2390 JUMP JUMPDEST DUP1 PUSH1 0x1F ADD PUSH1 0x20 DUP1 SWAP2 DIV MUL PUSH1 0x20 ADD PUSH1 0x40 MLOAD SWAP1 DUP2 ADD PUSH1 0x40 MSTORE DUP1 SWAP3 SWAP2 SWAP1 DUP2 DUP2 MSTORE PUSH1 0x20 ADD DUP3 DUP1 SLOAD PUSH2 0xEBD SWAP1 PUSH2 0x2390 JUMP JUMPDEST DUP1 ISZERO PUSH2 0xF08 JUMPI DUP1 PUSH1 0x1F LT PUSH2 0xEDF JUMPI PUSH2 0x100 DUP1 DUP4 SLOAD DIV MUL DUP4 MSTORE SWAP2 PUSH1 0x20 ADD SWAP2 PUSH2 0xF08 JUMP JUMPDEST DUP3 ADD SWAP2 SWAP1 PUSH0 MSTORE PUSH1 0x20 PUSH0 KECCAK256 SWAP1 JUMPDEST DUP2 SLOAD DUP2 MSTORE SWAP1 PUSH1 0x1 ADD SWAP1 PUSH1 0x20 ADD DUP1 DUP4 GT PUSH2 0xEEB JUMPI DUP3 SWAP1 SUB PUSH1 0x1F AND DUP3 ADD SWAP2 JUMPDEST POP POP POP POP POP DUP2 MSTORE PUSH1 0x20 ADD PUSH1 0x3 DUP3 ADD DUP1 SLOAD PUSH2 0xF21 SWAP1 PUSH2 0x2390 JUMP JUMPDEST DUP1 PUSH1 0x1F ADD PUSH1 0x20 DUP1 SWAP2 DIV MUL PUSH1 0x20 ADD PUSH1 0x40 MLOAD SWAP1 DUP2 ADD PUSH1 0x40 MSTORE DUP1 SWAP3 SWAP2 SWAP1 DUP2 DUP2 MSTORE PUSH1 0x20 ADD DUP3 DUP1 SLOAD PUSH2 0xF4D SWAP1 PUSH2 0x2390 JUMP JUMPDEST DUP1 ISZERO PUSH2 0xF98 JUMPI DUP1 PUSH1 0x1F LT PUSH2 0xF6F JUMPI PUSH2 0x100 DUP1 DUP4 SLOAD DIV MUL DUP4 MSTORE SWAP2 PUSH1 0x20 ADD SWAP2 PUSH2 0xF98 JUMP JUMPDEST DUP3 ADD SWAP2 SWAP1 PUSH0 MSTORE PUSH1 0x20 PUSH0 KECCAK256 SWAP1 JUMPDEST DUP2 SLOAD DUP2 MSTORE SWAP1 PUSH1 0x1 ADD SWAP1 PUSH1 0x20 ADD DUP1 DUP4 GT PUSH2 0xF7B JUMPI DUP3 SWAP1 SUB PUSH1 0x1F AND DUP3 ADD SWAP2 JUMPDEST POP POP POP POP POP DUP2 MSTORE PUSH1 0x20 ADD PUSH1 0x4 DUP3 ADD DUP1 SLOAD PUSH2 0xFB1 SWAP1 PUSH2 0x2390 JUMP JUMPDEST DUP1 PUSH1 0x1F ADD PUSH1 0x20 DUP1 SWAP2 DIV MUL PUSH1 0x20 ADD PUSH1 0x40 MLOAD SWAP1 DUP2 ADD PUSH1 0x40 MSTORE DUP1 SWAP3 SWAP2 SWAP1 DUP2 DUP2 MSTORE PUSH1 0x20 ADD DUP3 DUP1 SLOAD PUSH2 0xFDD SWAP1 PUSH2 0x2390 JUMP JUMPDEST DUP1 ISZERO PUSH2 0x1028 JUMPI DUP1 PUSH1 0x1F LT PUSH2 0xFFF JUMPI PUSH2 0x100 DUP1 DUP4 SLOAD DIV MUL DUP4 MSTORE SWAP2 PUSH1 0x20 ADD SWAP2 PUSH2 0x1028 JUMP JUMPDEST DUP3 ADD SWAP2 SWAP1 PUSH0 MSTORE PUSH1 0x20 PUSH0 KECCAK256 SWAP1 JUMPDEST DUP2 SLOAD DUP2 MSTORE SWAP1 PUSH1 0x1 ADD SWAP1 PUSH1 0x20 ADD DUP1 DUP4 GT PUSH2 0x100B JUMPI DUP3 SWAP1 SUB PUSH1 0x1F AND DUP3 ADD SWAP2 JUMPDEST POP POP POP POP POP DUP2 MSTORE PUSH1 0x20 ADD PUSH1 0x5 DUP3 ADD PUSH0 SWAP1 SLOAD SWAP1 PUSH2 0x100 EXP SWAP1 DIV PUSH20 0xFFFFFFFFFFFFFFFFFFFFFFFFFFFFFFFFFFFFFFFF AND PUSH20 0xFFFFFFFFFFFFFFFFFFFFFFFFFFFFFFFFFFFFFFFF AND PUSH20 0xFFFFFFFFFFFFFFFFFFFFFFFFFFFFFFFFFFFFFFFF AND DUP2 MSTORE PUSH1 0x20 ADD PUSH1 0x6 DUP3 ADD SLOAD DUP2 MSTORE PUSH1 0x20 ADD PUSH1 0x7 DUP3 ADD DUP1 SLOAD PUSH2 0x10A0 SWAP1 PUSH2 0x2390 JUMP JUMPDEST DUP1 PUSH1 0x1F ADD PUSH1 0x20 DUP1 SWAP2 DIV MUL PUSH1 0x20 ADD PUSH1 0x40 MLOAD SWAP1 DUP2 ADD PUSH1 0x40 MSTORE DUP1 SWAP3 SWAP2 SWAP1 DUP2 DUP2 MSTORE PUSH1 0x20 ADD DUP3 DUP1 SLOAD PUSH2 0x10CC SWAP1 PUSH2 0x2390 JUMP JUMPDEST DUP1 ISZERO PUSH2 0x1117 JUMPI DUP1 PUSH1 0x1F LT PUSH2 0x10EE JUMPI PUSH2 0x100 DUP1 DUP4 SLOAD DIV MUL DUP4 MSTORE SWAP2 PUSH1 0x20 ADD SWAP2 PUSH2 0x1117 JUMP JUMPDEST DUP3 ADD SWAP2 SWAP1 PUSH0 MSTORE PUSH1 0x20 PUSH0 KECCAK256 SWAP1 JUMPDEST DUP2 SLOAD DUP2 MSTORE SWAP1 PUSH1 0x1 ADD SWAP1 PUSH1 0x20 ADD DUP1 DUP4 GT PUSH2 0x10FA JUMPI DUP3 SWAP1 SUB PUSH1 0x1F AND DUP3 ADD SWAP2 JUMPDEST POP POP POP POP POP DUP2 MSTORE PUSH1 0x20 ADD PUSH1 0x8 DUP3 ADD PUSH0 SWAP1 SLOAD SWAP1 PUSH2 0x100 EXP SWAP1 DIV PUSH1 0xFF AND ISZERO ISZERO ISZERO ISZERO DUP2 MSTORE POP POP DUP4 DUP4 DUP2 MLOAD DUP2 LT PUSH2 0x114D JUMPI PUSH2 0x114C PUSH2 0x2692 JUMP JUMPDEST JUMPDEST PUSH1 0x20 MUL PUSH1 0x20 ADD ADD DUP2 SWAP1 MSTORE POP DUP2 DUP1 PUSH2 0x1163 SWAP1 PUSH2 0x22F5 JUMP JUMPDEST SWAP3 POP POP JUMPDEST DUP1 DUP1 PUSH2 0x1172 SWAP1 PUSH2 0x22F5 JUMP JUMPDEST SWAP2 POP POP PUSH2 0xD5C JUMP JUMPDEST POP DUP2 SWAP5 POP POP POP POP POP SWAP2 SWAP1 POP JUMP JUMPDEST PUSH1 0x60 PUSH0 PUSH1 0x2 SLOAD PUSH8 0xFFFFFFFFFFFFFFFF DUP2 GT ISZERO PUSH2 0x11A6 JUMPI PUSH2 0x11A5 PUSH2 0x190D JUMP JUMPDEST JUMPDEST PUSH1 0x40 MLOAD SWAP1 DUP1 DUP3 MSTORE DUP1 PUSH1 0x20 MUL PUSH1 0x20 ADD DUP3 ADD PUSH1 0x40 MSTORE DUP1 ISZERO PUSH2 0x11DF JUMPI DUP2 PUSH1 0x20 ADD JUMPDEST PUSH2 0x11CC PUSH2 0x1851 JUMP JUMPDEST DUP2 MSTORE PUSH1 0x20 ADD SWAP1 PUSH1 0x1 SWAP1 SUB SWAP1 DUP2 PUSH2 0x11C4 JUMPI SWAP1 POP JUMPDEST POP SWAP1 POP PUSH0 PUSH1 0x1 SWAP1 POP JUMPDEST PUSH1 0x2 SLOAD DUP2 GT PUSH2 0x159D JUMPI PUSH1 0x1 PUSH0 DUP3 DUP2 MSTORE PUSH1 0x20 ADD SWAP1 DUP2 MSTORE PUSH1 0x20 ADD PUSH0 KECCAK256 PUSH1 0x40 MLOAD DUP1 PUSH2 0x120 ADD PUSH1 0x40 MSTORE SWAP1 DUP2 PUSH0 DUP3 ADD SLOAD DUP2 MSTORE PUSH1 0x20 ADD PUSH1 0x1 DUP3 ADD DUP1 SLOAD PUSH2 0x1227 SWAP1 PUSH2 0x2390 JUMP JUMPDEST DUP1 PUSH1 0x1F ADD PUSH1 0x20 DUP1 SWAP2 DIV MUL PUSH1 0x20 ADD PUSH1 0x40 MLOAD SWAP1 DUP2 ADD PUSH1 0x40 MSTORE DUP1 SWAP3 SWAP2 SWAP1 DUP2 DUP2 MSTORE PUSH1 0x20 ADD DUP3 DUP1 SLOAD PUSH2 0x1253 SWAP1 PUSH2 0x2390 JUMP JUMPDEST DUP1 ISZERO PUSH2 0x129E JUMPI DUP1 PUSH1 0x1F LT PUSH2 0x1275 JUMPI PUSH2 0x100 DUP1 DUP4 SLOAD DIV MUL DUP4 MSTORE SWAP2 PUSH1 0x20 ADD SWAP2 PUSH2 0x129E JUMP JUMPDEST DUP3 ADD SWAP2 SWAP1 PUSH0 MSTORE PUSH1 0x20 PUSH0 KECCAK256 SWAP1 JUMPDEST DUP2 SLOAD DUP2 MSTORE SWAP1 PUSH1 0x1 ADD SWAP1 PUSH1 0x20 ADD DUP1 DUP4 GT PUSH2 0x1281 JUMPI DUP3 SWAP1 SUB PUSH1 0x1F AND DUP3 ADD SWAP2 JUMPDEST POP POP POP POP POP DUP2 MSTORE PUSH1 0x20 ADD PUSH1 0x2 DUP3 ADD DUP1 SLOAD PUSH2 0x12B7 SWAP1 PUSH2 0x2390 JUMP JUMPDEST DUP1 PUSH1 0x1F ADD PUSH1 0x20 DUP1 SWAP2 DIV MUL PUSH1 0x20 ADD PUSH1 0x40 MLOAD SWAP1 DUP2 ADD PUSH1 0x40 MSTORE DUP1 SWAP3 SWAP2 SWAP1 DUP2 DUP2 MSTORE PUSH1 0x20 ADD DUP3 DUP1 SLOAD PUSH2 0x12E3 SWAP1 PUSH2 0x2390 JUMP JUMPDEST DUP1 ISZERO PUSH2 0x132E JUMPI DUP1 PUSH1 0x1F LT PUSH2 0x1305 JUMPI PUSH2 0x100 DUP1 DUP4 SLOAD DIV MUL DUP4 MSTORE SWAP2 PUSH1 0x20 ADD SWAP2 PUSH2 0x132E JUMP JUMPDEST DUP3 ADD SWAP2 SWAP1 PUSH0 MSTORE PUSH1 0x20 PUSH0 KECCAK256 SWAP1 JUMPDEST DUP2 SLOAD DUP2 MSTORE SWAP1 PUSH1 0x1 ADD SWAP1 PUSH1 0x20 ADD DUP1 DUP4 GT PUSH2 0x1311 JUMPI DUP3 SWAP1 SUB PUSH1 0x1F AND DUP3 ADD SWAP2 JUMPDEST POP POP POP POP POP DUP2 MSTORE PUSH1 0x20 ADD PUSH1 0x3 DUP3 ADD DUP1 SLOAD PUSH2 0x1347 SWAP1 PUSH2 0x2390 JUMP JUMPDEST DUP1 PUSH1 0x1F ADD PUSH1 0x20 DUP1 SWAP2 DIV MUL PUSH1 0x20 ADD PUSH1 0x40 MLOAD SWAP1 DUP2 ADD PUSH1 0x40 MSTORE DUP1 SWAP3 SWAP2 SWAP1 DUP2 DUP2 MSTORE PUSH1 0x20 ADD DUP3 DUP1 SLOAD PUSH2 0x1373 SWAP1 PUSH2 0x2390 JUMP JUMPDEST DUP1 ISZERO PUSH2 0x13BE JUMPI DUP1 PUSH1 0x1F LT PUSH2 0x1395 JUMPI PUSH2 0x100 DUP1 DUP4 SLOAD DIV MUL DUP4 MSTORE SWAP2 PUSH1 0x20 ADD SWAP2 PUSH2 0x13BE JUMP JUMPDEST DUP3 ADD SWAP2 SWAP1 PUSH0 MSTORE PUSH1 0x20 PUSH0 KECCAK256 SWAP1 JUMPDEST DUP2 SLOAD DUP2 MSTORE SWAP1 PUSH1 0x1 ADD SWAP1 PUSH1 0x20 ADD DUP1 DUP4 GT PUSH2 0x13A1 JUMPI DUP3 SWAP1 SUB PUSH1 0x1F AND DUP3 ADD SWAP2 JUMPDEST POP POP POP POP POP DUP2 MSTORE PUSH1 0x20 ADD PUSH1 0x4 DUP3 ADD DUP1 SLOAD PUSH2 0x13D7 SWAP1 PUSH2 0x2390 JUMP JUMPDEST DUP1 PUSH1 0x1F ADD PUSH1 0x20 DUP1 SWAP2 DIV MUL PUSH1 0x20 ADD PUSH1 0x40 MLOAD SWAP1 DUP2 ADD PUSH1 0x40 MSTORE DUP1 SWAP3 SWAP2 SWAP1 DUP2 DUP2 MSTORE PUSH1 0x20 ADD DUP3 DUP1 SLOAD PUSH2 0x1403 SWAP1 PUSH2 0x2390 JUMP JUMPDEST DUP1 ISZERO PUSH2 0x144E JUMPI DUP1 PUSH1 0x1F LT PUSH2 0x1425 JUMPI PUSH2 0x100 DUP1 DUP4 SLOAD DIV MUL DUP4 MSTORE SWAP2 PUSH1 0x20 ADD SWAP2 PUSH2 0x144E JUMP JUMPDEST DUP3 ADD SWAP2 SWAP1 PUSH0 MSTORE PUSH1 0x20 PUSH0 KECCAK256 SWAP1 JUMPDEST DUP2 SLOAD DUP2 MSTORE SWAP1 PUSH1 0x1 ADD SWAP1 PUSH1 0x20 ADD DUP1 DUP4 GT PUSH2 0x1431 JUMPI DUP3 SWAP1 SUB PUSH1 0x1F AND DUP3 ADD SWAP2 JUMPDEST POP POP POP POP POP DUP2 MSTORE PUSH1 0x20 ADD PUSH1 0x5 DUP3 ADD PUSH0 SWAP1 SLOAD SWAP1 PUSH2 0x100 EXP SWAP1 DIV PUSH20 0xFFFFFFFFFFFFFFFFFFFFFFFFFFFFFFFFFFFFFFFF AND PUSH20 0xFFFFFFFFFFFFFFFFFFFFFFFFFFFFFFFFFFFFFFFF AND PUSH20 0xFFFFFFFFFFFFFFFFFFFFFFFFFFFFFFFFFFFFFFFF AND DUP2 MSTORE PUSH1 0x20 ADD PUSH1 0x6 DUP3 ADD SLOAD DUP2 MSTORE PUSH1 0x20 ADD PUSH1 0x7 DUP3 ADD DUP1 SLOAD PUSH2 0x14C6 SWAP1 PUSH2 0x2390 JUMP JUMPDEST DUP1 PUSH1 0x1F ADD PUSH1 0x20 DUP1 SWAP2 DIV MUL PUSH1 0x20 ADD PUSH1 0x40 MLOAD SWAP1 DUP2 ADD PUSH1 0x40 MSTORE DUP1 SWAP3 SWAP2 SWAP1 DUP2 DUP2 MSTORE PUSH1 0x20 ADD DUP3 DUP1 SLOAD PUSH2 0x14F2 SWAP1 PUSH2 0x2390 JUMP JUMPDEST DUP1 ISZERO PUSH2 0x153D JUMPI DUP1 PUSH1 0x1F LT PUSH2 0x1514 JUMPI PUSH2 0x100 DUP1 DUP4 SLOAD DIV MUL DUP4 MSTORE SWAP2 PUSH1 0x20 ADD SWAP2 PUSH2 0x153D JUMP JUMPDEST DUP3 ADD SWAP2 SWAP1 PUSH0 MSTORE PUSH1 0x20 PUSH0 KECCAK256 SWAP1 JUMPDEST DUP2 SLOAD DUP2 MSTORE SWAP1 PUSH1 0x1 ADD SWAP1 PUSH1 0x20 ADD DUP1 DUP4 GT PUSH2 0x1520 JUMPI DUP3 SWAP1 SUB PUSH1 0x1F AND DUP3 ADD SWAP2 JUMPDEST POP POP POP POP POP DUP2 MSTORE PUSH1 0x20 ADD PUSH1 0x8 DUP3 ADD PUSH0 SWAP1 SLOAD SWAP1 PUSH2 0x100 EXP SWAP1 DIV PUSH1 0xFF AND ISZERO ISZERO ISZERO ISZERO DUP2 MSTORE POP POP DUP3 PUSH1 0x1 DUP4 PUSH2 0x156E SWAP2 SWAP1 PUSH2 0x26BF JUMP JUMPDEST DUP2 MLOAD DUP2 LT PUSH2 0x157F JUMPI PUSH2 0x157E PUSH2 0x2692 JUMP JUMPDEST JUMPDEST PUSH1 0x20 MUL PUSH1 0x20 ADD ADD DUP2 SWAP1 MSTORE POP DUP1 DUP1 PUSH2 0x1595 SWAP1 PUSH2 0x22F5 JUMP JUMPDEST SWAP2 POP POP PUSH2 0x11E8 JUMP JUMPDEST POP DUP1 SWAP2 POP POP SWAP1 JUMP JUMPDEST PUSH0 DUP1 SLOAD SWAP1 PUSH2 0x100 EXP SWAP1 DIV PUSH20 0xFFFFFFFFFFFFFFFFFFFFFFFFFFFFFFFFFFFFFFFF AND PUSH20 0xFFFFFFFFFFFFFFFFFFFFFFFFFFFFFFFFFFFFFFFF AND CALLER PUSH20 0xFFFFFFFFFFFFFFFFFFFFFFFFFFFFFFFFFFFFFFFF AND EQ PUSH2 0x1632 JUMPI PUSH1 0x40 MLOAD PUSH32 0x8C379A000000000000000000000000000000000000000000000000000000000 DUP2 MSTORE PUSH1 0x4 ADD PUSH2 0x1629 SWAP1 PUSH2 0x2762 JUMP JUMPDEST PUSH1 0x40 MLOAD DUP1 SWAP2 SUB SWAP1 REVERT JUMPDEST PUSH1 0x2 SLOAD DUP3 GT ISZERO PUSH2 0x1677 JUMPI PUSH1 0x40 MLOAD PUSH32 0x8C379A000000000000000000000000000000000000000000000000000000000 DUP2 MSTORE PUSH1 0x4 ADD PUSH2 0x166E SWAP1 PUSH2 0x21B4 JUMP JUMPDEST PUSH1 0x40 MLOAD DUP1 SWAP2 SUB SWAP1 REVERT JUMPDEST DUP1 PUSH1 0x1 PUSH0 DUP5 DUP2 MSTORE PUSH1 0x20 ADD SWAP1 DUP2 MSTORE PUSH1 0x20 ADD PUSH0 KECCAK256 PUSH1 0x8 ADD PUSH0 PUSH2 0x100 EXP DUP2 SLOAD DUP2 PUSH1 0xFF MUL NOT AND SWAP1 DUP4 ISZERO ISZERO MUL OR SWAP1 SSTORE POP PUSH32 0x927952A2B75BC777764FC0705576C9AFD4505F750C39435912843AF08C9A67CE DUP3 DUP3 PUSH1 0x40 MLOAD PUSH2 0x16D3 SWAP3 SWAP2 SWAP1 PUSH2 0x2780 JUMP JUMPDEST PUSH1 0x40 MLOAD DUP1 SWAP2 SUB SWAP1 LOG1 POP POP JUMP JUMPDEST PUSH0 DUP1 DUP3 SWAP1 POP PUSH0 DUP1 DUP1 PUSH1 0x2 SWAP1 POP JUMPDEST PUSH1 0x2A DUP2 LT ISZERO PUSH2 0x1845 JUMPI DUP4 DUP2 DUP2 MLOAD DUP2 LT PUSH2 0x1708 JUMPI PUSH2 0x1707 PUSH2 0x2692 JUMP JUMPDEST JUMPDEST PUSH1 0x20 ADD ADD MLOAD PUSH1 0xF8 SHR PUSH1 0xF8 SHL PUSH1 0xF8 SHR PUSH1 0xFF AND SWAP2 POP PUSH1 0x61 DUP3 PUSH20 0xFFFFFFFFFFFFFFFFFFFFFFFFFFFFFFFFFFFFFFFF AND LT ISZERO DUP1 ISZERO PUSH2 0x1759 JUMPI POP PUSH1 0x66 DUP3 PUSH20 0xFFFFFFFFFFFFFFFFFFFFFFFFFFFFFFFFFFFFFFFF AND GT ISZERO JUMPDEST ISZERO PUSH2 0x1772 JUMPI PUSH1 0x57 DUP3 PUSH2 0x176B SWAP2 SWAP1 PUSH2 0x27A7 JUMP JUMPDEST SWAP2 POP PUSH2 0x181E JUMP JUMPDEST PUSH1 0x41 DUP3 PUSH20 0xFFFFFFFFFFFFFFFFFFFFFFFFFFFFFFFFFFFFFFFF AND LT ISZERO DUP1 ISZERO PUSH2 0x17B0 JUMPI POP PUSH1 0x46 DUP3 PUSH20 0xFFFFFFFFFFFFFFFFFFFFFFFFFFFFFFFFFFFFFFFF AND GT ISZERO JUMPDEST ISZERO PUSH2 0x17C9 JUMPI PUSH1 0x37 DUP3 PUSH2 0x17C2 SWAP2 SWAP1 PUSH2 0x27A7 JUMP JUMPDEST SWAP2 POP PUSH2 0x181D JUMP JUMPDEST PUSH1 0x30 DUP3 PUSH20 0xFFFFFFFFFFFFFFFFFFFFFFFFFFFFFFFFFFFFFFFF AND LT ISZERO DUP1 ISZERO PUSH2 0x1807 JUMPI POP PUSH1 0x39 DUP3 PUSH20 0xFFFFFFFFFFFFFFFFFFFFFFFFFFFFFFFFFFFFFFFF AND GT ISZERO JUMPDEST ISZERO PUSH2 0x181C JUMPI PUSH1 0x30 DUP3 PUSH2 0x1819 SWAP2 SWAP1 PUSH2 0x27A7 JUMP JUMPDEST SWAP2 POP JUMPDEST JUMPDEST JUMPDEST DUP2 PUSH1 0x10 DUP5 PUSH2 0x182C SWAP2 SWAP1 PUSH2 0x27EE JUMP JUMPDEST PUSH2 0x1836 SWAP2 SWAP1 PUSH2 0x282F JUMP JUMPDEST SWAP3 POP DUP1 DUP1 PUSH1 0x1 ADD SWAP2 POP POP PUSH2 0x16EC JUMP JUMPDEST POP DUP2 SWAP4 POP POP POP POP SWAP2 SWAP1 POP JUMP JUMPDEST PUSH1 0x40 MLOAD DUP1 PUSH2 0x120 ADD PUSH1 0x40 MSTORE DUP1 PUSH0 DUP2 MSTORE PUSH1 0x20 ADD PUSH1 0x60 DUP2 MSTORE PUSH1 0x20 ADD PUSH1 0x60 DUP2 MSTORE PUSH1 0x20 ADD PUSH1 0x60 DUP2 MSTORE PUSH1 0x20 ADD PUSH1 0x60 DUP2 MSTORE PUSH1 0x20 ADD PUSH0 PUSH20 0xFFFFFFFFFFFFFFFFFFFFFFFFFFFFFFFFFFFFFFFF AND DUP2 MSTORE PUSH1 0x20 ADD PUSH0 DUP2 MSTORE PUSH1 0x20 ADD PUSH1 0x60 DUP2 MSTORE PUSH1 0x20 ADD PUSH0 ISZERO ISZERO DUP2 MSTORE POP SWAP1 JUMP JUMPDEST PUSH0 PUSH1 0x40 MLOAD SWAP1 POP SWAP1 JUMP JUMPDEST PUSH0 DUP1 REVERT JUMPDEST PUSH0 DUP1 REVERT JUMPDEST PUSH0 DUP2 SWAP1 POP SWAP2 SWAP1 POP JUMP JUMPDEST PUSH2 0x18D4 DUP2 PUSH2 0x18C2 JUMP JUMPDEST DUP2 EQ PUSH2 0x18DE JUMPI PUSH0 DUP1 REVERT JUMPDEST POP JUMP JUMPDEST PUSH0 DUP2 CALLDATALOAD SWAP1 POP PUSH2 0x18EF DUP2 PUSH2 0x18CB JUMP JUMPDEST SWAP3 SWAP2 POP POP JUMP JUMPDEST PUSH0 DUP1 REVERT JUMPDEST PUSH0 DUP1 REVERT JUMPDEST PUSH0 PUSH1 0x1F NOT PUSH1 0x1F DUP4 ADD AND SWAP1 POP SWAP2 SWAP1 POP JUMP JUMPDEST PUSH32 0x4E487B7100000000000000000000000000000000000000000000000000000000 PUSH0 MSTORE PUSH1 0x41 PUSH1 0x4 MSTORE PUSH1 0x24 PUSH0 REVERT JUMPDEST PUSH2 0x1943 DUP3 PUSH2 0x18FD JUMP JUMPDEST DUP2 ADD DUP2 DUP2 LT PUSH8 0xFFFFFFFFFFFFFFFF DUP3 GT OR ISZERO PUSH2 0x1962 JUMPI PUSH2 0x1961 PUSH2 0x190D JUMP JUMPDEST JUMPDEST DUP1 PUSH1 0x40 MSTORE POP POP POP JUMP JUMPDEST PUSH0 PUSH2 0x1974 PUSH2 0x18B1 JUMP JUMPDEST SWAP1 POP PUSH2 0x1980 DUP3 DUP3 PUSH2 0x193A JUMP JUMPDEST SWAP2 SWAP1 POP JUMP JUMPDEST PUSH0 PUSH8 0xFFFFFFFFFFFFFFFF DUP3 GT ISZERO PUSH2 0x199F JUMPI PUSH2 0x199E PUSH2 0x190D JUMP JUMPDEST JUMPDEST PUSH2 0x19A8 DUP3 PUSH2 0x18FD JUMP JUMPDEST SWAP1 POP PUSH1 0x20 DUP2 ADD SWAP1 POP SWAP2 SWAP1 POP JUMP JUMPDEST DUP3 DUP2 DUP4 CALLDATACOPY PUSH0 DUP4 DUP4 ADD MSTORE POP POP POP JUMP JUMPDEST PUSH0 PUSH2 0x19D5 PUSH2 0x19D0 DUP5 PUSH2 0x1985 JUMP JUMPDEST PUSH2 0x196B JUMP JUMPDEST SWAP1 POP DUP3 DUP2 MSTORE PUSH1 0x20 DUP2 ADD DUP5 DUP5 DUP5 ADD GT ISZERO PUSH2 0x19F1 JUMPI PUSH2 0x19F0 PUSH2 0x18F9 JUMP JUMPDEST JUMPDEST PUSH2 0x19FC DUP5 DUP3 DUP6 PUSH2 0x19B5 JUMP JUMPDEST POP SWAP4 SWAP3 POP POP POP JUMP JUMPDEST PUSH0 DUP3 PUSH1 0x1F DUP4 ADD SLT PUSH2 0x1A18 JUMPI PUSH2 0x1A17 PUSH2 0x18F5 JUMP JUMPDEST JUMPDEST DUP2 CALLDATALOAD PUSH2 0x1A28 DUP5 DUP3 PUSH1 0x20 DUP7 ADD PUSH2 0x19C3 JUMP JUMPDEST SWAP2 POP POP SWAP3 SWAP2 POP POP JUMP JUMPDEST PUSH0 DUP1 PUSH1 0x40 DUP4 DUP6 SUB SLT ISZERO PUSH2 0x1A47 JUMPI PUSH2 0x1A46 PUSH2 0x18BA JUMP JUMPDEST JUMPDEST PUSH0 PUSH2 0x1A54 DUP6 DUP3 DUP7 ADD PUSH2 0x18E1 JUMP JUMPDEST SWAP3 POP POP PUSH1 0x20 DUP4 ADD CALLDATALOAD PUSH8 0xFFFFFFFFFFFFFFFF DUP2 GT ISZERO PUSH2 0x1A75 JUMPI PUSH2 0x1A74 PUSH2 0x18BE JUMP JUMPDEST JUMPDEST PUSH2 0x1A81 DUP6 DUP3 DUP7 ADD PUSH2 0x1A04 JUMP JUMPDEST SWAP2 POP POP SWAP3 POP SWAP3 SWAP1 POP JUMP JUMPDEST PUSH0 DUP1 PUSH0 DUP1 PUSH0 DUP1 PUSH1 0xC0 DUP8 DUP10 SUB SLT ISZERO PUSH2 0x1AA5 JUMPI PUSH2 0x1AA4 PUSH2 0x18BA JUMP JUMPDEST JUMPDEST PUSH0 DUP8 ADD CALLDATALOAD PUSH8 0xFFFFFFFFFFFFFFFF DUP2 GT ISZERO PUSH2 0x1AC2 JUMPI PUSH2 0x1AC1 PUSH2 0x18BE JUMP JUMPDEST JUMPDEST PUSH2 0x1ACE DUP10 DUP3 DUP11 ADD PUSH2 0x1A04 JUMP JUMPDEST SWAP7 POP POP PUSH1 0x20 DUP8 ADD CALLDATALOAD PUSH8 0xFFFFFFFFFFFFFFFF DUP2 GT ISZERO PUSH2 0x1AEF JUMPI PUSH2 0x1AEE PUSH2 0x18BE JUMP JUMPDEST JUMPDEST PUSH2 0x1AFB DUP10 DUP3 DUP11 ADD PUSH2 0x1A04 JUMP JUMPDEST SWAP6 POP POP PUSH1 0x40 DUP8 ADD CALLDATALOAD PUSH8 0xFFFFFFFFFFFFFFFF DUP2 GT ISZERO PUSH2 0x1B1C JUMPI PUSH2 0x1B1B PUSH2 0x18BE JUMP JUMPDEST JUMPDEST PUSH2 0x1B28 DUP10 DUP3 DUP11 ADD PUSH2 0x1A04 JUMP JUMPDEST SWAP5 POP POP PUSH1 0x60 DUP8 ADD CALLDATALOAD PUSH8 0xFFFFFFFFFFFFFFFF DUP2 GT ISZERO PUSH2 0x1B49 JUMPI PUSH2 0x1B48 PUSH2 0x18BE JUMP JUMPDEST JUMPDEST PUSH2 0x1B55 DUP10 DUP3 DUP11 ADD PUSH2 0x1A04 JUMP JUMPDEST SWAP4 POP POP PUSH1 0x80 DUP8 ADD CALLDATALOAD PUSH8 0xFFFFFFFFFFFFFFFF DUP2 GT ISZERO PUSH2 0x1B76 JUMPI PUSH2 0x1B75 PUSH2 0x18BE JUMP JUMPDEST JUMPDEST PUSH2 0x1B82 DUP10 DUP3 DUP11 ADD PUSH2 0x1A04 JUMP JUMPDEST SWAP3 POP POP PUSH1 0xA0 DUP8 ADD CALLDATALOAD PUSH8 0xFFFFFFFFFFFFFFFF DUP2 GT ISZERO PUSH2 0x1BA3 JUMPI PUSH2 0x1BA2 PUSH2 0x18BE JUMP JUMPDEST JUMPDEST PUSH2 0x1BAF DUP10 DUP3 DUP11 ADD PUSH2 0x1A04 JUMP JUMPDEST SWAP2 POP POP SWAP3 SWAP6 POP SWAP3 SWAP6 POP SWAP3 SWAP6 JUMP JUMPDEST PUSH0 PUSH1 0x20 DUP3 DUP5 SUB SLT ISZERO PUSH2 0x1BD1 JUMPI PUSH2 0x1BD0 PUSH2 0x18BA JUMP JUMPDEST JUMPDEST PUSH0 PUSH2 0x1BDE DUP5 DUP3 DUP6 ADD PUSH2 0x18E1 JUMP JUMPDEST SWAP2 POP POP SWAP3 SWAP2 POP POP JUMP JUMPDEST PUSH2 0x1BF0 DUP2 PUSH2 0x18C2 JUMP JUMPDEST DUP3 MSTORE POP POP JUMP JUMPDEST PUSH0 DUP2 MLOAD SWAP1 POP SWAP2 SWAP1 POP JUMP JUMPDEST PUSH0 DUP3 DUP3 MSTORE PUSH1 0x20 DUP3 ADD SWAP1 POP SWAP3 SWAP2 POP POP JUMP JUMPDEST DUP3 DUP2 DUP4 MCOPY PUSH0 DUP4 DUP4 ADD MSTORE POP POP POP JUMP JUMPDEST PUSH0 PUSH2 0x1C28 DUP3 PUSH2 0x1BF6 JUMP JUMPDEST PUSH2 0x1C32 DUP2 DUP6 PUSH2 0x1C00 JUMP JUMPDEST SWAP4 POP PUSH2 0x1C42 DUP2 DUP6 PUSH1 0x20 DUP7 ADD PUSH2 0x1C10 JUMP JUMPDEST PUSH2 0x1C4B DUP2 PUSH2 0x18FD JUMP JUMPDEST DUP5 ADD SWAP2 POP POP SWAP3 SWAP2 POP POP JUMP JUMPDEST PUSH0 PUSH20 0xFFFFFFFFFFFFFFFFFFFFFFFFFFFFFFFFFFFFFFFF DUP3 AND SWAP1 POP SWAP2 SWAP1 POP JUMP JUMPDEST PUSH0 PUSH2 0x1C7F DUP3 PUSH2 0x1C56 JUMP JUMPDEST SWAP1 POP SWAP2 SWAP1 POP JUMP JUMPDEST PUSH2 0x1C8F DUP2 PUSH2 0x1C75 JUMP JUMPDEST DUP3 MSTORE POP POP JUMP JUMPDEST PUSH0 DUP2 ISZERO ISZERO SWAP1 POP SWAP2 SWAP1 POP JUMP JUMPDEST PUSH2 0x1CA9 DUP2 PUSH2 0x1C95 JUMP JUMPDEST DUP3 MSTORE POP POP JUMP JUMPDEST PUSH0 PUSH2 0x120 DUP3 ADD SWAP1 POP PUSH2 0x1CC3 PUSH0 DUP4 ADD DUP13 PUSH2 0x1BE7 JUMP JUMPDEST DUP2 DUP2 SUB PUSH1 0x20 DUP4 ADD MSTORE PUSH2 0x1CD5 DUP2 DUP12 PUSH2 0x1C1E JUMP JUMPDEST SWAP1 POP DUP2 DUP2 SUB PUSH1 0x40 DUP4 ADD MSTORE PUSH2 0x1CE9 DUP2 DUP11 PUSH2 0x1C1E JUMP JUMPDEST SWAP1 POP DUP2 DUP2 SUB PUSH1 0x60 DUP4 ADD MSTORE PUSH2 0x1CFD DUP2 DUP10 PUSH2 0x1C1E JUMP JUMPDEST SWAP1 POP DUP2 DUP2 SUB PUSH1 0x80 DUP4 ADD MSTORE PUSH2 0x1D11 DUP2 DUP9 PUSH2 0x1C1E JUMP JUMPDEST SWAP1 POP PUSH2 0x1D20 PUSH1 0xA0 DUP4 ADD DUP8 PUSH2 0x1C86 JUMP JUMPDEST PUSH2 0x1D2D PUSH1 0xC0 DUP4 ADD DUP7 PUSH2 0x1BE7 JUMP JUMPDEST DUP2 DUP2 SUB PUSH1 0xE0 DUP4 ADD MSTORE PUSH2 0x1D3F DUP2 DUP6 PUSH2 0x1C1E JUMP JUMPDEST SWAP1 POP PUSH2 0x1D4F PUSH2 0x100 DUP4 ADD DUP5 PUSH2 0x1CA0 JUMP JUMPDEST SWAP11 SWAP10 POP POP POP POP POP POP POP POP POP POP JUMP JUMPDEST PUSH0 PUSH1 0x20 DUP3 ADD SWAP1 POP PUSH2 0x1D70 PUSH0 DUP4 ADD DUP5 PUSH2 0x1BE7 JUMP JUMPDEST SWAP3 SWAP2 POP POP JUMP JUMPDEST PUSH2 0x1D7F DUP2 PUSH2 0x18C2 JUMP JUMPDEST DUP3 MSTORE POP POP JUMP JUMPDEST PUSH0 DUP3 DUP3 MSTORE PUSH1 0x20 DUP3 ADD SWAP1 POP SWAP3 SWAP2 POP POP JUMP JUMPDEST PUSH0 PUSH2 0x1D9F DUP3 PUSH2 0x1BF6 JUMP JUMPDEST PUSH2 0x1DA9 DUP2 DUP6 PUSH2 0x1D85 JUMP JUMPDEST SWAP4 POP PUSH2 0x1DB9 DUP2 DUP6 PUSH1 0x20 DUP7 ADD PUSH2 0x1C10 JUMP JUMPDEST PUSH2 0x1DC2 DUP2 PUSH2 0x18FD JUMP JUMPDEST DUP5 ADD SWAP2 POP POP SWAP3 SWAP2 POP POP JUMP JUMPDEST PUSH2 0x1DD6 DUP2 PUSH2 0x1C75 JUMP JUMPDEST DUP3 MSTORE POP POP JUMP JUMPDEST PUSH2 0x1DE5 DUP2 PUSH2 0x1C95 JUMP JUMPDEST DUP3 MSTORE POP POP JUMP JUMPDEST PUSH0 PUSH2 0x120 DUP4 ADD PUSH0 DUP4 ADD MLOAD PUSH2 0x1E01 PUSH0 DUP7 ADD DUP3 PUSH2 0x1D76 JUMP JUMPDEST POP PUSH1 0x20 DUP4 ADD MLOAD DUP5 DUP3 SUB PUSH1 0x20 DUP7 ADD MSTORE PUSH2 0x1E19 DUP3 DUP3 PUSH2 0x1D95 JUMP JUMPDEST SWAP2 POP POP PUSH1 0x40 DUP4 ADD MLOAD DUP5 DUP3 SUB PUSH1 0x40 DUP7 ADD MSTORE PUSH2 0x1E33 DUP3 DUP3 PUSH2 0x1D95 JUMP JUMPDEST SWAP2 POP POP PUSH1 0x60 DUP4 ADD MLOAD DUP5 DUP3 SUB PUSH1 0x60 DUP7 ADD MSTORE PUSH2 0x1E4D DUP3 DUP3 PUSH2 0x1D95 JUMP JUMPDEST SWAP2 POP POP PUSH1 0x80 DUP4 ADD MLOAD DUP5 DUP3 SUB PUSH1 0x80 DUP7 ADD MSTORE PUSH2 0x1E67 DUP3 DUP3 PUSH2 0x1D95 JUMP JUMPDEST SWAP2 POP POP PUSH1 0xA0 DUP4 ADD MLOAD PUSH2 0x1E7C PUSH1 0xA0 DUP7 ADD DUP3 PUSH2 0x1DCD JUMP JUMPDEST POP PUSH1 0xC0 DUP4 ADD MLOAD PUSH2 0x1E8F PUSH1 0xC0 DUP7 ADD DUP3 PUSH2 0x1D76 JUMP JUMPDEST POP PUSH1 0xE0 DUP4 ADD MLOAD DUP5 DUP3 SUB PUSH1 0xE0 DUP7 ADD MSTORE PUSH2 0x1EA7 DUP3 DUP3 PUSH2 0x1D95 JUMP JUMPDEST SWAP2 POP POP PUSH2 0x100 DUP4 ADD MLOAD PUSH2 0x1EBE PUSH2 0x100 DUP7 ADD DUP3 PUSH2 0x1DDC JUMP JUMPDEST POP DUP1 SWAP2 POP POP SWAP3 SWAP2 POP POP JUMP JUMPDEST PUSH0 PUSH1 0x20 DUP3 ADD SWAP1 POP DUP2 DUP2 SUB PUSH0 DUP4 ADD MSTORE PUSH2 0x1EE1 DUP2 DUP5 PUSH2 0x1DEB JUMP JUMPDEST SWAP1 POP SWAP3 SWAP2 POP POP JUMP JUMPDEST PUSH0 PUSH1 0x20 DUP3 ADD SWAP1 POP PUSH2 0x1EFC PUSH0 DUP4 ADD DUP5 PUSH2 0x1C86 JUMP JUMPDEST SWAP3 SWAP2 POP POP JUMP JUMPDEST PUSH0 PUSH1 0x20 DUP3 DUP5 SUB SLT ISZERO PUSH2 0x1F17 JUMPI PUSH2 0x1F16 PUSH2 0x18BA JUMP JUMPDEST JUMPDEST PUSH0 DUP3 ADD CALLDATALOAD PUSH8 0xFFFFFFFFFFFFFFFF DUP2 GT ISZERO PUSH2 0x1F34 JUMPI PUSH2 0x1F33 PUSH2 0x18BE JUMP JUMPDEST JUMPDEST PUSH2 0x1F40 DUP5 DUP3 DUP6 ADD PUSH2 0x1A04 JUMP JUMPDEST SWAP2 POP POP SWAP3 SWAP2 POP POP JUMP JUMPDEST PUSH0 DUP2 MLOAD SWAP1 POP SWAP2 SWAP1 POP JUMP JUMPDEST PUSH0 DUP3 DUP3 MSTORE PUSH1 0x20 DUP3 ADD SWAP1 POP SWAP3 SWAP2 POP POP JUMP JUMPDEST PUSH0 DUP2 SWAP1 POP PUSH1 0x20 DUP3 ADD SWAP1 POP SWAP2 SWAP1 POP JUMP JUMPDEST PUSH0 PUSH2 0x120 DUP4 ADD PUSH0 DUP4 ADD MLOAD PUSH2 0x1F88 PUSH0 DUP7 ADD DUP3 PUSH2 0x1D76 JUMP JUMPDEST POP PUSH1 0x20 DUP4 ADD MLOAD DUP5 DUP3 SUB PUSH1 0x20 DUP7 ADD MSTORE PUSH2 0x1FA0 DUP3 DUP3 PUSH2 0x1D95 JUMP JUMPDEST SWAP2 POP POP PUSH1 0x40 DUP4 ADD MLOAD DUP5 DUP3 SUB PUSH1 0x40 DUP7 ADD MSTORE PUSH2 0x1FBA DUP3 DUP3 PUSH2 0x1D95 JUMP JUMPDEST SWAP2 POP POP PUSH1 0x60 DUP4 ADD MLOAD DUP5 DUP3 SUB PUSH1 0x60 DUP7 ADD MSTORE PUSH2 0x1FD4 DUP3 DUP3 PUSH2 0x1D95 JUMP JUMPDEST SWAP2 POP POP PUSH1 0x80 DUP4 ADD MLOAD DUP5 DUP3 SUB PUSH1 0x80 DUP7 ADD MSTORE PUSH2 0x1FEE DUP3 DUP3 PUSH2 0x1D95 JUMP JUMPDEST SWAP2 POP POP PUSH1 0xA0 DUP4 ADD MLOAD PUSH2 0x2003 PUSH1 0xA0 DUP7 ADD DUP3 PUSH2 0x1DCD JUMP JUMPDEST POP PUSH1 0xC0 DUP4 ADD MLOAD PUSH2 0x2016 PUSH1 0xC0 DUP7 ADD DUP3 PUSH2 0x1D76 JUMP JUMPDEST POP PUSH1 0xE0 DUP4 ADD MLOAD DUP5 DUP3 SUB PUSH1 0xE0 DUP7 ADD MSTORE PUSH2 0x202E DUP3 DUP3 PUSH2 0x1D95 JUMP JUMPDEST SWAP2 POP POP PUSH2 0x100 DUP4 ADD MLOAD PUSH2 0x2045 PUSH2 0x100 DUP7 ADD DUP3 PUSH2 0x1DDC JUMP JUMPDEST POP DUP1 SWAP2 POP POP SWAP3 SWAP2 POP POP JUMP JUMPDEST PUSH0 PUSH2 0x205B DUP4 DUP4 PUSH2 0x1F72 JUMP JUMPDEST SWAP1 POP SWAP3 SWAP2 POP POP JUMP JUMPDEST PUSH0 PUSH1 0x20 DUP3 ADD SWAP1 POP SWAP2 SWAP1 POP JUMP JUMPDEST PUSH0 PUSH2 0x2079 DUP3 PUSH2 0x1F49 JUMP JUMPDEST PUSH2 0x2083 DUP2 DUP6 PUSH2 0x1F53 JUMP JUMPDEST SWAP4 POP DUP4 PUSH1 0x20 DUP3 MUL DUP6 ADD PUSH2 0x2095 DUP6 PUSH2 0x1F63 JUMP JUMPDEST DUP1 PUSH0 JUMPDEST DUP6 DUP2 LT ISZERO PUSH2 0x20D0 JUMPI DUP5 DUP5 SUB DUP10 MSTORE DUP2 MLOAD PUSH2 0x20B1 DUP6 DUP3 PUSH2 0x2050 JUMP JUMPDEST SWAP5 POP PUSH2 0x20BC DUP4 PUSH2 0x2063 JUMP JUMPDEST SWAP3 POP PUSH1 0x20 DUP11 ADD SWAP10 POP POP PUSH1 0x1 DUP2 ADD SWAP1 POP PUSH2 0x2098 JUMP JUMPDEST POP DUP3 SWAP8 POP DUP8 SWAP6 POP POP POP POP POP POP SWAP3 SWAP2 POP POP JUMP JUMPDEST PUSH0 PUSH1 0x20 DUP3 ADD SWAP1 POP DUP2 DUP2 SUB PUSH0 DUP4 ADD MSTORE PUSH2 0x20FA DUP2 DUP5 PUSH2 0x206F JUMP JUMPDEST SWAP1 POP SWAP3 SWAP2 POP POP JUMP JUMPDEST PUSH2 0x210B DUP2 PUSH2 0x1C95 JUMP JUMPDEST DUP2 EQ PUSH2 0x2115 JUMPI PUSH0 DUP1 REVERT JUMPDEST POP JUMP JUMPDEST PUSH0 DUP2 CALLDATALOAD SWAP1 POP PUSH2 0x2126 DUP2 PUSH2 0x2102 JUMP JUMPDEST SWAP3 SWAP2 POP POP JUMP JUMPDEST PUSH0 DUP1 PUSH1 0x40 DUP4 DUP6 SUB SLT ISZERO PUSH2 0x2142 JUMPI PUSH2 0x2141 PUSH2 0x18BA JUMP JUMPDEST JUMPDEST PUSH0 PUSH2 0x214F DUP6 DUP3 DUP7 ADD PUSH2 0x18E1 JUMP JUMPDEST SWAP3 POP POP PUSH1 0x20 PUSH2 0x2160 DUP6 DUP3 DUP7 ADD PUSH2 0x2118 JUMP JUMPDEST SWAP2 POP POP SWAP3 POP SWAP3 SWAP1 POP JUMP JUMPDEST PUSH32 0x5065746974696F6E20646F6573206E6F742065786973742E0000000000000000 PUSH0 DUP3 ADD MSTORE POP JUMP JUMPDEST PUSH0 PUSH2 0x219E PUSH1 0x18 DUP4 PUSH2 0x1C00 JUMP JUMPDEST SWAP2 POP PUSH2 0x21A9 DUP3 PUSH2 0x216A JUMP JUMPDEST PUSH1 0x20 DUP3 ADD SWAP1 POP SWAP2 SWAP1 POP JUMP JUMPDEST PUSH0 PUSH1 0x20 DUP3 ADD SWAP1 POP DUP2 DUP2 SUB PUSH0 DUP4 ADD MSTORE PUSH2 0x21CB DUP2 PUSH2 0x2192 JUMP JUMPDEST SWAP1 POP SWAP2 SWAP1 POP JUMP JUMPDEST PUSH32 0x5065746974696F6E20697320636C6F7365642E00000000000000000000000000 PUSH0 DUP3 ADD MSTORE POP JUMP JUMPDEST PUSH0 PUSH2 0x2206 PUSH1 0x13 DUP4 PUSH2 0x1C00 JUMP JUMPDEST SWAP2 POP PUSH2 0x2211 DUP3 PUSH2 0x21D2 JUMP JUMPDEST PUSH1 0x20 DUP3 ADD SWAP1 POP SWAP2 SWAP1 POP JUMP JUMPDEST PUSH0 PUSH1 0x20 DUP3 ADD SWAP1 POP DUP2 DUP2 SUB PUSH0 DUP4 ADD MSTORE PUSH2 0x2233 DUP2 PUSH2 0x21FA JUMP JUMPDEST SWAP1 POP SWAP2 SWAP1 POP JUMP JUMPDEST PUSH32 0x43726561746F722063616E6E6F74207369676E207468656972206F776E207065 PUSH0 DUP3 ADD MSTORE PUSH32 0x746974696F6E2E00000000000000000000000000000000000000000000000000 PUSH1 0x20 DUP3 ADD MSTORE POP JUMP JUMPDEST PUSH0 PUSH2 0x2294 PUSH1 0x27 DUP4 PUSH2 0x1C00 JUMP JUMPDEST SWAP2 POP PUSH2 0x229F DUP3 PUSH2 0x223A JUMP JUMPDEST PUSH1 0x40 DUP3 ADD SWAP1 POP SWAP2 SWAP1 POP JUMP JUMPDEST PUSH0 PUSH1 0x20 DUP3 ADD SWAP1 POP DUP2 DUP2 SUB PUSH0 DUP4 ADD MSTORE PUSH2 0x22C1 DUP2 PUSH2 0x2288 JUMP JUMPDEST SWAP1 POP SWAP2 SWAP1 POP JUMP JUMPDEST PUSH32 0x4E487B7100000000000000000000000000000000000000000000000000000000 PUSH0 MSTORE PUSH1 0x11 PUSH1 0x4 MSTORE PUSH1 0x24 PUSH0 REVERT JUMPDEST PUSH0 PUSH2 0x22FF DUP3 PUSH2 0x18C2 JUMP JUMPDEST SWAP2 POP PUSH32 0xFFFFFFFFFFFFFFFFFFFFFFFFFFFFFFFFFFFFFFFFFFFFFFFFFFFFFFFFFFFFFFFF DUP3 SUB PUSH2 0x2331 JUMPI PUSH2 0x2330 PUSH2 0x22C8 JUMP JUMPDEST JUMPDEST PUSH1 0x1 DUP3 ADD SWAP1 POP SWAP2 SWAP1 POP JUMP JUMPDEST PUSH0 PUSH1 0x40 DUP3 ADD SWAP1 POP PUSH2 0x234F PUSH0 DUP4 ADD DUP6 PUSH2 0x1BE7 JUMP JUMPDEST PUSH2 0x235C PUSH1 0x20 DUP4 ADD DUP5 PUSH2 0x1C86 JUMP JUMPDEST SWAP4 SWAP3 POP POP POP JUMP JUMPDEST PUSH32 0x4E487B7100000000000000000000000000000000000000000000000000000000 PUSH0 MSTORE PUSH1 0x22 PUSH1 0x4 MSTORE PUSH1 0x24 PUSH0 REVERT JUMPDEST PUSH0 PUSH1 0x2 DUP3 DIV SWAP1 POP PUSH1 0x1 DUP3 AND DUP1 PUSH2 0x23A7 JUMPI PUSH1 0x7F DUP3 AND SWAP2 POP JUMPDEST PUSH1 0x20 DUP3 LT DUP2 SUB PUSH2 0x23BA JUMPI PUSH2 0x23B9 PUSH2 0x2363 JUMP JUMPDEST JUMPDEST POP SWAP2 SWAP1 POP JUMP JUMPDEST PUSH0 DUP2 SWAP1 POP DUP2 PUSH0 MSTORE PUSH1 0x20 PUSH0 KECCAK256 SWAP1 POP SWAP2 SWAP1 POP JUMP JUMPDEST PUSH0 PUSH1 0x20 PUSH1 0x1F DUP4 ADD DIV SWAP1 POP SWAP2 SWAP1 POP JUMP JUMPDEST PUSH0 DUP3 DUP3 SHL SWAP1 POP SWAP3 SWAP2 POP POP JUMP JUMPDEST PUSH0 PUSH1 0x8 DUP4 MUL PUSH2 0x241C PUSH32 0xFFFFFFFFFFFFFFFFFFFFFFFFFFFFFFFFFFFFFFFFFFFFFFFFFFFFFFFFFFFFFFFF DUP3 PUSH2 0x23E1 JUMP JUMPDEST PUSH2 0x2426 DUP7 DUP4 PUSH2 0x23E1 JUMP JUMPDEST SWAP6 POP DUP1 NOT DUP5 AND SWAP4 POP DUP1 DUP7 AND DUP5 OR SWAP3 POP POP POP SWAP4 SWAP3 POP POP POP JUMP JUMPDEST PUSH0 DUP2 SWAP1 POP SWAP2 SWAP1 POP JUMP JUMPDEST PUSH0 PUSH2 0x2461 PUSH2 0x245C PUSH2 0x2457 DUP5 PUSH2 0x18C2 JUMP JUMPDEST PUSH2 0x243E JUMP JUMPDEST PUSH2 0x18C2 JUMP JUMPDEST SWAP1 POP SWAP2 SWAP1 POP JUMP JUMPDEST PUSH0 DUP2 SWAP1 POP SWAP2 SWAP1 POP JUMP JUMPDEST PUSH2 0x247A DUP4 PUSH2 0x2447 JUMP JUMPDEST PUSH2 0x248E PUSH2 0x2486 DUP3 PUSH2 0x2468 JUMP JUMPDEST DUP5 DUP5 SLOAD PUSH2 0x23ED JUMP JUMPDEST DUP3 SSTORE POP POP POP POP JUMP JUMPDEST PUSH0 SWAP1 JUMP JUMPDEST PUSH2 0x24A2 PUSH2 0x2496 JUMP JUMPDEST PUSH2 0x24AD DUP2 DUP5 DUP5 PUSH2 0x2471 JUMP JUMPDEST POP POP POP JUMP JUMPDEST JUMPDEST DUP2 DUP2 LT ISZERO PUSH2 0x24D0 JUMPI PUSH2 0x24C5 PUSH0 DUP3 PUSH2 0x249A JUMP JUMPDEST PUSH1 0x1 DUP2 ADD SWAP1 POP PUSH2 0x24B3 JUMP JUMPDEST POP POP JUMP JUMPDEST PUSH1 0x1F DUP3 GT ISZERO PUSH2 0x2515 JUMPI PUSH2 0x24E6 DUP2 PUSH2 0x23C0 JUMP JUMPDEST PUSH2 0x24EF DUP5 PUSH2 0x23D2 JUMP JUMPDEST DUP2 ADD PUSH1 0x20 DUP6 LT ISZERO PUSH2 0x24FE JUMPI DUP2 SWAP1 POP JUMPDEST PUSH2 0x2512 PUSH2 0x250A DUP6 PUSH2 0x23D2 JUMP JUMPDEST DUP4 ADD DUP3 PUSH2 0x24B2 JUMP JUMPDEST POP POP JUMPDEST POP POP POP JUMP JUMPDEST PUSH0 DUP3 DUP3 SHR SWAP1 POP SWAP3 SWAP2 POP POP JUMP JUMPDEST PUSH0 PUSH2 0x2535 PUSH0 NOT DUP5 PUSH1 0x8 MUL PUSH2 0x251A JUMP JUMPDEST NOT DUP1 DUP4 AND SWAP2 POP POP SWAP3 SWAP2 POP POP JUMP JUMPDEST PUSH0 PUSH2 0x254D DUP4 DUP4 PUSH2 0x2526 JUMP JUMPDEST SWAP2 POP DUP3 PUSH1 0x2 MUL DUP3 OR SWAP1 POP SWAP3 SWAP2 POP POP JUMP JUMPDEST PUSH2 0x2566 DUP3 PUSH2 0x1BF6 JUMP JUMPDEST PUSH8 0xFFFFFFFFFFFFFFFF DUP2 GT ISZERO PUSH2 0x257F JUMPI PUSH2 0x257E PUSH2 0x190D JUMP JUMPDEST JUMPDEST PUSH2 0x2589 DUP3 SLOAD PUSH2 0x2390 JUMP JUMPDEST PUSH2 0x2594 DUP3 DUP3 DUP6 PUSH2 0x24D4 JUMP JUMPDEST PUSH0 PUSH1 0x20 SWAP1 POP PUSH1 0x1F DUP4 GT PUSH1 0x1 DUP2 EQ PUSH2 0x25C5 JUMPI PUSH0 DUP5 ISZERO PUSH2 0x25B3 JUMPI DUP3 DUP8 ADD MLOAD SWAP1 POP JUMPDEST PUSH2 0x25BD DUP6 DUP3 PUSH2 0x2542 JUMP JUMPDEST DUP7 SSTORE POP PUSH2 0x2624 JUMP JUMPDEST PUSH1 0x1F NOT DUP5 AND PUSH2 0x25D3 DUP7 PUSH2 0x23C0 JUMP JUMPDEST PUSH0 JUMPDEST DUP3 DUP2 LT ISZERO PUSH2 0x25FA JUMPI DUP5 DUP10 ADD MLOAD DUP3 SSTORE PUSH1 0x1 DUP3 ADD SWAP2 POP PUSH1 0x20 DUP6 ADD SWAP5 POP PUSH1 0x20 DUP2 ADD SWAP1 POP PUSH2 0x25D5 JUMP JUMPDEST DUP7 DUP4 LT ISZERO PUSH2 0x2617 JUMPI DUP5 DUP10 ADD MLOAD PUSH2 0x2613 PUSH1 0x1F DUP10 AND DUP3 PUSH2 0x2526 JUMP JUMPDEST DUP4 SSTORE POP JUMPDEST PUSH1 0x1 PUSH1 0x2 DUP9 MUL ADD DUP9 SSTORE POP POP POP JUMPDEST POP POP POP POP POP POP JUMP JUMPDEST PUSH0 PUSH1 0xA0 DUP3 ADD SWAP1 POP PUSH2 0x263F PUSH0 DUP4 ADD DUP9 PUSH2 0x1BE7 JUMP JUMPDEST DUP2 DUP2 SUB PUSH1 0x20 DUP4 ADD MSTORE PUSH2 0x2651 DUP2 DUP8 PUSH2 0x1C1E JUMP JUMPDEST SWAP1 POP PUSH2 0x2660 PUSH1 0x40 DUP4 ADD DUP7 PUSH2 0x1C86 JUMP JUMPDEST DUP2 DUP2 SUB PUSH1 0x60 DUP4 ADD MSTORE PUSH2 0x2672 DUP2 DUP6 PUSH2 0x1C1E JUMP JUMPDEST SWAP1 POP DUP2 DUP2 SUB PUSH1 0x80 DUP4 ADD MSTORE PUSH2 0x2686 DUP2 DUP5 PUSH2 0x1C1E JUMP JUMPDEST SWAP1 POP SWAP7 SWAP6 POP POP POP POP POP POP JUMP JUMPDEST PUSH32 0x4E487B7100000000000000000000000000000000000000000000000000000000 PUSH0 MSTORE PUSH1 0x32 PUSH1 0x4 MSTORE PUSH1 0x24 PUSH0 REVERT JUMPDEST PUSH0 PUSH2 0x26C9 DUP3 PUSH2 0x18C2 JUMP JUMPDEST SWAP2 POP PUSH2 0x26D4 DUP4 PUSH2 0x18C2 JUMP JUMPDEST SWAP3 POP DUP3 DUP3 SUB SWAP1 POP DUP2 DUP2 GT ISZERO PUSH2 0x26EC JUMPI PUSH2 0x26EB PUSH2 0x22C8 JUMP JUMPDEST JUMPDEST SWAP3 SWAP2 POP POP JUMP JUMPDEST PUSH32 0x4F6E6C7920746865206F776E65722063616E20706572666F726D207468697320 PUSH0 DUP3 ADD MSTORE PUSH32 0x616374696F6E0000000000000000000000000000000000000000000000000000 PUSH1 0x20 DUP3 ADD MSTORE POP JUMP JUMPDEST PUSH0 PUSH2 0x274C PUSH1 0x26 DUP4 PUSH2 0x1C00 JUMP JUMPDEST SWAP2 POP PUSH2 0x2757 DUP3 PUSH2 0x26F2 JUMP JUMPDEST PUSH1 0x40 DUP3 ADD SWAP1 POP SWAP2 SWAP1 POP JUMP JUMPDEST PUSH0 PUSH1 0x20 DUP3 ADD SWAP1 POP DUP2 DUP2 SUB PUSH0 DUP4 ADD MSTORE PUSH2 0x2779 DUP2 PUSH2 0x2740 JUMP JUMPDEST SWAP1 POP SWAP2 SWAP1 POP JUMP JUMPDEST PUSH0 PUSH1 0x40 DUP3 ADD SWAP1 POP PUSH2 0x2793 PUSH0 DUP4 ADD DUP6 PUSH2 0x1BE7 JUMP JUMPDEST PUSH2 0x27A0 PUSH1 0x20 DUP4 ADD DUP5 PUSH2 0x1CA0 JUMP JUMPDEST SWAP4 SWAP3 POP POP POP JUMP JUMPDEST PUSH0 PUSH2 0x27B1 DUP3 PUSH2 0x1C56 JUMP JUMPDEST SWAP2 POP PUSH2 0x27BC DUP4 PUSH2 0x1C56 JUMP JUMPDEST SWAP3 POP DUP3 DUP3 SUB SWAP1 POP PUSH20 0xFFFFFFFFFFFFFFFFFFFFFFFFFFFFFFFFFFFFFFFF DUP2 GT ISZERO PUSH2 0x27E8 JUMPI PUSH2 0x27E7 PUSH2 0x22C8 JUMP JUMPDEST JUMPDEST SWAP3 SWAP2 POP POP JUMP JUMPDEST PUSH0 PUSH2 0x27F8 DUP3 PUSH2 0x1C56 JUMP JUMPDEST SWAP2 POP PUSH2 0x2803 DUP4 PUSH2 0x1C56 JUMP JUMPDEST SWAP3 POP DUP3 DUP3 MUL PUSH2 0x2811 DUP2 PUSH2 0x1C56 JUMP JUMPDEST SWAP2 POP DUP3 DUP3 DIV DUP5 EQ DUP4 ISZERO OR PUSH2 0x2828 JUMPI PUSH2 0x2827 PUSH2 0x22C8 JUMP JUMPDEST JUMPDEST POP SWAP3 SWAP2 POP POP JUMP JUMPDEST PUSH0 PUSH2 0x2839 DUP3 PUSH2 0x1C56 JUMP JUMPDEST SWAP2 POP PUSH2 0x2844 DUP4 PUSH2 0x1C56 JUMP JUMPDEST SWAP3 POP DUP3 DUP3 ADD SWAP1 POP PUSH20 0xFFFFFFFFFFFFFFFFFFFFFFFFFFFFFFFFFFFFFFFF DUP2 GT ISZERO PUSH2 0x2870 JUMPI PUSH2 0x286F PUSH2 0x22C8 JUMP JUMPDEST JUMPDEST SWAP3 SWAP2 POP POP JUMP INVALID LOG2 PUSH5 0x6970667358 0x22 SLT KECCAK256 TSTORE 0xE6 OR PUSH5 0x1A399A07A6 TLOAD 0xC6 0xC4 PUSH4 0xB173E07A 0xC5 0xAC 0xF9 PUSH24 0xDE1A445D7605A731384D264736F6C634300081A00330000 "
		},
		"gasEstimates": {
			"creation": {
				"codeDepositCost": "2082400",
				"executionCost": "26477",
				"totalCost": "2108877"
			},
			"external": {
				"createPetition(string,string,string,string,string,string)": "infinite",
				"getAllPetitions()": "infinite",
				"getPetitionById(uint256)": "infinite",
				"getPetitionsByAddress(string)": "infinite",
				"owner()": "2527",
				"petitionCount()": "2492",
				"petitions(uint256)": "infinite",
				"signPetition(uint256,string)": "infinite",
				"updatePetitionStatus(uint256,bool)": "infinite"
			},
			"internal": {
				"parseAddress(string memory)": "infinite"
			}
		},
		"methodIdentifiers": {
			"createPetition(string,string,string,string,string,string)": "19f6652e",
			"getAllPetitions()": "9a37c01e",
			"getPetitionById(uint256)": "63edc48f",
			"getPetitionsByAddress(string)": "8fef3fa3",
			"owner()": "8da5cb5b",
			"petitionCount()": "61ab1f09",
			"petitions(uint256)": "3ad50ded",
			"signPetition(uint256,string)": "0bcb03d4",
			"updatePetitionStatus(uint256,bool)": "ade1079d"
		}
	},
	"abi": [
		{
			"inputs": [],
			"stateMutability": "nonpayable",
			"type": "constructor"
		},
		{
			"anonymous": false,
			"inputs": [
				{
					"indexed": false,
					"internalType": "uint256",
					"name": "petitionId",
					"type": "uint256"
				},
				{
					"indexed": false,
					"internalType": "string",
					"name": "title",
					"type": "string"
				},
				{
					"indexed": false,
					"internalType": "address",
					"name": "creator",
					"type": "address"
				},
				{
					"indexed": false,
					"internalType": "string",
					"name": "name",
					"type": "string"
				},
				{
					"indexed": false,
					"internalType": "string",
					"name": "petitionType",
					"type": "string"
				}
			],
			"name": "PetitionCreated",
			"type": "event"
		},
		{
			"anonymous": false,
			"inputs": [
				{
					"indexed": false,
					"internalType": "uint256",
					"name": "petitionId",
					"type": "uint256"
				},
				{
					"indexed": false,
					"internalType": "address",
					"name": "signer",
					"type": "address"
				}
			],
			"name": "PetitionSigned",
			"type": "event"
		},
		{
			"anonymous": false,
			"inputs": [
				{
					"indexed": false,
					"internalType": "uint256",
					"name": "petitionId",
					"type": "uint256"
				},
				{
					"indexed": false,
					"internalType": "bool",
					"name": "isOpen",
					"type": "bool"
				}
			],
			"name": "PetitionStatusUpdated",
			"type": "event"
		},
		{
			"inputs": [
				{
					"internalType": "string",
					"name": "title",
					"type": "string"
				},
				{
					"internalType": "string",
					"name": "description",
					"type": "string"
				},
				{
					"internalType": "string",
					"name": "name",
					"type": "string"
				},
				{
					"internalType": "string",
					"name": "physicalAddress",
					"type": "string"
				},
				{
					"internalType": "string",
					"name": "petitionType",
					"type": "string"
				},
				{
					"internalType": "string",
					"name": "userAddressString",
					"type": "string"
				}
			],
			"name": "createPetition",
			"outputs": [],
			"stateMutability": "nonpayable",
			"type": "function"
		},
		{
			"inputs": [],
			"name": "getAllPetitions",
			"outputs": [
				{
					"components": [
						{
							"internalType": "uint256",
							"name": "petitionId",
							"type": "uint256"
						},
						{
							"internalType": "string",
							"name": "title",
							"type": "string"
						},
						{
							"internalType": "string",
							"name": "description",
							"type": "string"
						},
						{
							"internalType": "string",
							"name": "name",
							"type": "string"
						},
						{
							"internalType": "string",
							"name": "physicalAddress",
							"type": "string"
						},
						{
							"internalType": "address",
							"name": "creator",
							"type": "address"
						},
						{
							"internalType": "uint256",
							"name": "signCount",
							"type": "uint256"
						},
						{
							"internalType": "string",
							"name": "petitionType",
							"type": "string"
						},
						{
							"internalType": "bool",
							"name": "isOpen",
							"type": "bool"
						}
					],
					"internalType": "struct Petition.PetitionDetails[]",
					"name": "",
					"type": "tuple[]"
				}
			],
			"stateMutability": "view",
			"type": "function"
		},
		{
			"inputs": [
				{
					"internalType": "uint256",
					"name": "petitionId",
					"type": "uint256"
				}
			],
			"name": "getPetitionById",
			"outputs": [
				{
					"components": [
						{
							"internalType": "uint256",
							"name": "petitionId",
							"type": "uint256"
						},
						{
							"internalType": "string",
							"name": "title",
							"type": "string"
						},
						{
							"internalType": "string",
							"name": "description",
							"type": "string"
						},
						{
							"internalType": "string",
							"name": "name",
							"type": "string"
						},
						{
							"internalType": "string",
							"name": "physicalAddress",
							"type": "string"
						},
						{
							"internalType": "address",
							"name": "creator",
							"type": "address"
						},
						{
							"internalType": "uint256",
							"name": "signCount",
							"type": "uint256"
						},
						{
							"internalType": "string",
							"name": "petitionType",
							"type": "string"
						},
						{
							"internalType": "bool",
							"name": "isOpen",
							"type": "bool"
						}
					],
					"internalType": "struct Petition.PetitionDetails",
					"name": "",
					"type": "tuple"
				}
			],
			"stateMutability": "view",
			"type": "function"
		},
		{
			"inputs": [
				{
					"internalType": "string",
					"name": "userAddressString",
					"type": "string"
				}
			],
			"name": "getPetitionsByAddress",
			"outputs": [
				{
					"components": [
						{
							"internalType": "uint256",
							"name": "petitionId",
							"type": "uint256"
						},
						{
							"internalType": "string",
							"name": "title",
							"type": "string"
						},
						{
							"internalType": "string",
							"name": "description",
							"type": "string"
						},
						{
							"internalType": "string",
							"name": "name",
							"type": "string"
						},
						{
							"internalType": "string",
							"name": "physicalAddress",
							"type": "string"
						},
						{
							"internalType": "address",
							"name": "creator",
							"type": "address"
						},
						{
							"internalType": "uint256",
							"name": "signCount",
							"type": "uint256"
						},
						{
							"internalType": "string",
							"name": "petitionType",
							"type": "string"
						},
						{
							"internalType": "bool",
							"name": "isOpen",
							"type": "bool"
						}
					],
					"internalType": "struct Petition.PetitionDetails[]",
					"name": "",
					"type": "tuple[]"
				}
			],
			"stateMutability": "view",
			"type": "function"
		},
		{
			"inputs": [],
			"name": "owner",
			"outputs": [
				{
					"internalType": "address",
					"name": "",
					"type": "address"
				}
			],
			"stateMutability": "view",
			"type": "function"
		},
		{
			"inputs": [],
			"name": "petitionCount",
			"outputs": [
				{
					"internalType": "uint256",
					"name": "",
					"type": "uint256"
				}
			],
			"stateMutability": "view",
			"type": "function"
		},
		{
			"inputs": [
				{
					"internalType": "uint256",
					"name": "",
					"type": "uint256"
				}
			],
			"name": "petitions",
			"outputs": [
				{
					"internalType": "uint256",
					"name": "petitionId",
					"type": "uint256"
				},
				{
					"internalType": "string",
					"name": "title",
					"type": "string"
				},
				{
					"internalType": "string",
					"name": "description",
					"type": "string"
				},
				{
					"internalType": "string",
					"name": "name",
					"type": "string"
				},
				{
					"internalType": "string",
					"name": "physicalAddress",
					"type": "string"
				},
				{
					"internalType": "address",
					"name": "creator",
					"type": "address"
				},
				{
					"internalType": "uint256",
					"name": "signCount",
					"type": "uint256"
				},
				{
					"internalType": "string",
					"name": "petitionType",
					"type": "string"
				},
				{
					"internalType": "bool",
					"name": "isOpen",
					"type": "bool"
				}
			],
			"stateMutability": "view",
			"type": "function"
		},
		{
			"inputs": [
				{
					"internalType": "uint256",
					"name": "petitionId",
					"type": "uint256"
				},
				{
					"internalType": "string",
					"name": "userAddressString",
					"type": "string"
				}
			],
			"name": "signPetition",
			"outputs": [],
			"stateMutability": "nonpayable",
			"type": "function"
		},
		{
			"inputs": [
				{
					"internalType": "uint256",
					"name": "petitionId",
					"type": "uint256"
				},
				{
					"internalType": "bool",
					"name": "isOpen",
					"type": "bool"
				}
			],
			"name": "updatePetitionStatus",
			"outputs": [],
			"stateMutability": "nonpayable",
			"type": "function"
		}
	]
}